{
  "contractName": "BEP20Token",
  "abi": [
    {
      "inputs": [],
      "stateMutability": "nonpayable",
      "type": "constructor"
    },
    {
      "anonymous": false,
      "inputs": [
        {
          "indexed": true,
          "internalType": "address",
          "name": "owner",
          "type": "address"
        },
        {
          "indexed": true,
          "internalType": "address",
          "name": "spender",
          "type": "address"
        },
        {
          "indexed": false,
          "internalType": "uint256",
          "name": "value",
          "type": "uint256"
        }
      ],
      "name": "Approval",
      "type": "event"
    },
    {
      "anonymous": false,
      "inputs": [
        {
          "indexed": true,
          "internalType": "address",
          "name": "to",
          "type": "address"
        },
        {
          "indexed": false,
          "internalType": "uint256",
          "name": "amount",
          "type": "uint256"
        }
      ],
      "name": "Mint",
      "type": "event"
    },
    {
      "anonymous": false,
      "inputs": [
        {
          "indexed": true,
          "internalType": "address",
          "name": "previousOwner",
          "type": "address"
        }
      ],
      "name": "OwnershipRenounced",
      "type": "event"
    },
    {
      "anonymous": false,
      "inputs": [
        {
          "indexed": true,
          "internalType": "address",
          "name": "previousOwner",
          "type": "address"
        },
        {
          "indexed": true,
          "internalType": "address",
          "name": "newOwner",
          "type": "address"
        }
      ],
      "name": "OwnershipTransferred",
      "type": "event"
    },
    {
      "anonymous": false,
      "inputs": [
        {
          "indexed": true,
          "internalType": "address",
          "name": "from",
          "type": "address"
        },
        {
          "indexed": true,
          "internalType": "address",
          "name": "to",
          "type": "address"
        },
        {
          "indexed": false,
          "internalType": "uint256",
          "name": "value",
          "type": "uint256"
        }
      ],
      "name": "Transfer",
      "type": "event"
    },
    {
      "inputs": [],
      "name": "_buyProfit",
      "outputs": [
        {
          "internalType": "uint256",
          "name": "",
          "type": "uint256"
        }
      ],
      "stateMutability": "view",
      "type": "function"
    },
    {
      "inputs": [],
      "name": "_buyTax",
      "outputs": [
        {
          "internalType": "uint256",
          "name": "",
          "type": "uint256"
        }
      ],
      "stateMutability": "view",
      "type": "function"
    },
    {
      "inputs": [],
      "name": "_fundTax",
      "outputs": [
        {
          "internalType": "uint256",
          "name": "",
          "type": "uint256"
        }
      ],
      "stateMutability": "view",
      "type": "function"
    },
    {
      "inputs": [],
      "name": "_marketTax",
      "outputs": [
        {
          "internalType": "uint256",
          "name": "",
          "type": "uint256"
        }
      ],
      "stateMutability": "view",
      "type": "function"
    },
    {
      "inputs": [],
      "name": "_sellBurn",
      "outputs": [
        {
          "internalType": "uint256",
          "name": "",
          "type": "uint256"
        }
      ],
      "stateMutability": "view",
      "type": "function"
    },
    {
      "inputs": [],
      "name": "_sellTax",
      "outputs": [
        {
          "internalType": "uint256",
          "name": "",
          "type": "uint256"
        }
      ],
      "stateMutability": "view",
      "type": "function"
    },
    {
      "inputs": [
        {
          "internalType": "address",
          "name": "_owner",
          "type": "address"
        },
        {
          "internalType": "address",
          "name": "_spender",
          "type": "address"
        }
      ],
      "name": "allowance",
      "outputs": [
        {
          "internalType": "uint256",
          "name": "",
          "type": "uint256"
        }
      ],
      "stateMutability": "view",
      "type": "function"
    },
    {
      "inputs": [
        {
          "internalType": "address",
          "name": "_spender",
          "type": "address"
        },
        {
          "internalType": "uint256",
          "name": "_value",
          "type": "uint256"
        }
      ],
      "name": "approve",
      "outputs": [
        {
          "internalType": "bool",
          "name": "",
          "type": "bool"
        }
      ],
      "stateMutability": "nonpayable",
      "type": "function"
    },
    {
      "inputs": [
        {
          "internalType": "address",
          "name": "_owner",
          "type": "address"
        }
      ],
      "name": "balanceOf",
      "outputs": [
        {
          "internalType": "uint256",
          "name": "",
          "type": "uint256"
        }
      ],
      "stateMutability": "view",
      "type": "function"
    },
    {
      "inputs": [],
      "name": "decimals",
      "outputs": [
        {
          "internalType": "uint8",
          "name": "",
          "type": "uint8"
        }
      ],
      "stateMutability": "view",
      "type": "function"
    },
    {
      "inputs": [
        {
          "internalType": "address",
          "name": "_spender",
          "type": "address"
        },
        {
          "internalType": "uint256",
          "name": "_subtractedValue",
          "type": "uint256"
        }
      ],
      "name": "decreaseApproval",
      "outputs": [
        {
          "internalType": "bool",
          "name": "",
          "type": "bool"
        }
      ],
      "stateMutability": "nonpayable",
      "type": "function"
    },
    {
      "inputs": [
        {
          "internalType": "address",
          "name": "_spender",
          "type": "address"
        },
        {
          "internalType": "uint256",
          "name": "_addedValue",
          "type": "uint256"
        }
      ],
      "name": "increaseApproval",
      "outputs": [
        {
          "internalType": "bool",
          "name": "",
          "type": "bool"
        }
      ],
      "stateMutability": "nonpayable",
      "type": "function"
    },
    {
      "inputs": [
        {
          "internalType": "address",
          "name": "",
          "type": "address"
        }
      ],
      "name": "isExcludedFromFee",
      "outputs": [
        {
          "internalType": "bool",
          "name": "",
          "type": "bool"
        }
      ],
      "stateMutability": "view",
      "type": "function"
    },
    {
      "inputs": [
        {
          "internalType": "address",
          "name": "",
          "type": "address"
        }
      ],
      "name": "isLiquidPool",
      "outputs": [
        {
          "internalType": "bool",
          "name": "",
          "type": "bool"
        }
      ],
      "stateMutability": "view",
      "type": "function"
    },
    {
      "inputs": [
        {
          "internalType": "address",
          "name": "",
          "type": "address"
        }
      ],
      "name": "isMarketPair",
      "outputs": [
        {
          "internalType": "bool",
          "name": "",
          "type": "bool"
        }
      ],
      "stateMutability": "view",
      "type": "function"
    },
    {
      "inputs": [
        {
          "internalType": "address",
          "name": "_to",
          "type": "address"
        },
        {
          "internalType": "uint256",
          "name": "_amount",
          "type": "uint256"
        }
      ],
      "name": "mint",
      "outputs": [
        {
          "internalType": "bool",
          "name": "",
          "type": "bool"
        }
      ],
      "stateMutability": "nonpayable",
      "type": "function"
    },
    {
      "inputs": [],
      "name": "mintTotal",
      "outputs": [
        {
          "internalType": "uint256",
          "name": "",
          "type": "uint256"
        }
      ],
      "stateMutability": "view",
      "type": "function"
    },
    {
      "inputs": [],
      "name": "mintingFinished",
      "outputs": [
        {
          "internalType": "bool",
          "name": "",
          "type": "bool"
        }
      ],
      "stateMutability": "view",
      "type": "function"
    },
    {
      "inputs": [],
      "name": "name",
      "outputs": [
        {
          "internalType": "string",
          "name": "",
          "type": "string"
        }
      ],
      "stateMutability": "view",
      "type": "function"
    },
    {
      "inputs": [],
      "name": "owner",
      "outputs": [
        {
          "internalType": "address",
          "name": "",
          "type": "address"
        }
      ],
      "stateMutability": "view",
      "type": "function"
    },
    {
      "inputs": [],
      "name": "symbol",
      "outputs": [
        {
          "internalType": "string",
          "name": "",
          "type": "string"
        }
      ],
      "stateMutability": "view",
      "type": "function"
    },
    {
      "inputs": [],
      "name": "totalSupply",
      "outputs": [
        {
          "internalType": "uint256",
          "name": "",
          "type": "uint256"
        }
      ],
      "stateMutability": "view",
      "type": "function"
    },
    {
      "inputs": [
        {
          "internalType": "address",
          "name": "_to",
          "type": "address"
        },
        {
          "internalType": "uint256",
          "name": "_value",
          "type": "uint256"
        }
      ],
      "name": "transfer",
      "outputs": [
        {
          "internalType": "bool",
          "name": "",
          "type": "bool"
        }
      ],
      "stateMutability": "nonpayable",
      "type": "function"
    },
    {
      "inputs": [
        {
          "internalType": "address",
          "name": "_from",
          "type": "address"
        },
        {
          "internalType": "address",
          "name": "_to",
          "type": "address"
        },
        {
          "internalType": "uint256",
          "name": "_value",
          "type": "uint256"
        }
      ],
      "name": "transferFrom",
      "outputs": [
        {
          "internalType": "bool",
          "name": "",
          "type": "bool"
        }
      ],
      "stateMutability": "nonpayable",
      "type": "function"
    },
    {
      "inputs": [
        {
          "internalType": "address",
          "name": "newOwner",
          "type": "address"
        }
      ],
      "name": "transferOwnership",
      "outputs": [],
      "stateMutability": "nonpayable",
      "type": "function"
    },
    {
      "inputs": [],
      "name": "walletFund",
      "outputs": [
        {
          "internalType": "address",
          "name": "",
          "type": "address"
        }
      ],
      "stateMutability": "view",
      "type": "function"
    },
    {
      "inputs": [],
      "name": "walletMarket",
      "outputs": [
        {
          "internalType": "address",
          "name": "",
          "type": "address"
        }
      ],
      "stateMutability": "view",
      "type": "function"
    },
    {
      "inputs": [
        {
          "internalType": "uint256",
          "name": "value",
          "type": "uint256"
        }
      ],
      "name": "burn",
      "outputs": [],
      "stateMutability": "nonpayable",
      "type": "function"
    },
    {
      "inputs": [
        {
          "internalType": "address",
          "name": "account",
          "type": "address"
        },
        {
          "internalType": "bool",
          "name": "status",
          "type": "bool"
        }
      ],
      "name": "setMarketPairStatus",
      "outputs": [],
      "stateMutability": "nonpayable",
      "type": "function"
    },
    {
      "inputs": [
        {
          "internalType": "address",
          "name": "account",
          "type": "address"
        },
        {
          "internalType": "bool",
          "name": "status",
          "type": "bool"
        }
      ],
      "name": "setLiquidPoolStatus",
      "outputs": [],
      "stateMutability": "nonpayable",
      "type": "function"
    },
    {
      "inputs": [
        {
          "internalType": "address",
          "name": "account",
          "type": "address"
        },
        {
          "internalType": "bool",
          "name": "status",
          "type": "bool"
        }
      ],
      "name": "setIsExcludedFromFee",
      "outputs": [],
      "stateMutability": "nonpayable",
      "type": "function"
    }
  ],
  "bytecode": "0x6080604052600060085560056009556005600a556001600b556001600c556003600d556003600e5573e4afe8cd56759fb1198e511cdc64810cb3cae931600f60006101000a81548173ffffffffffffffffffffffffffffffffffffffff021916908373ffffffffffffffffffffffffffffffffffffffff16021790555073da3c9c121fae7cfbd998145136bab7235a3b18a6601060006101000a81548173ffffffffffffffffffffffffffffffffffffffff021916908373ffffffffffffffffffffffffffffffffffffffff1602179055506000601160146101000a81548160ff02191690831515021790555060006012556040518060400160405280601a81526020017f507972616d6964204d616e6167656d656e742054726164696e67000000000000815250601390805190602001906200013e92919062000572565b506040518060400160405280600381526020017f504d540000000000000000000000000000000000000000000000000000000000815250601490805190602001906200018c92919062000572565b506012601560006101000a81548160ff021916908360ff160217905550348015620001b657600080fd5b5033601160006101000a81548173ffffffffffffffffffffffffffffffffffffffff021916908373ffffffffffffffffffffffffffffffffffffffff160217905550601560009054906101000a900460ff1660ff16600a62000219919062000708565b630c8458806200022a919062000845565b6001819055506200024433600154620002fb60201b60201c565b506001600360003373ffffffffffffffffffffffffffffffffffffffff1673ffffffffffffffffffffffffffffffffffffffff16815260200190815260200160002060006101000a81548160ff0219169083151502179055506001600360003073ffffffffffffffffffffffffffffffffffffffff1673ffffffffffffffffffffffffffffffffffffffff16815260200190815260200160002060006101000a81548160ff02191690831515021790555062000951565b6000601160009054906101000a900473ffffffffffffffffffffffffffffffffffffffff1673ffffffffffffffffffffffffffffffffffffffff163373ffffffffffffffffffffffffffffffffffffffff16146200035857600080fd5b601160149054906101000a900460ff16156200037357600080fd5b600062000391836012546200052260201b620016321790919060201c565b9050600154811115620003a357600080fd5b620003bf836012546200052260201b620016321790919060201c565b6012819055506200041d836000808773ffffffffffffffffffffffffffffffffffffffff1673ffffffffffffffffffffffffffffffffffffffff168152602001908152602001600020546200052260201b620016321790919060201c565b6000808673ffffffffffffffffffffffffffffffffffffffff1673ffffffffffffffffffffffffffffffffffffffff168152602001908152602001600020819055508373ffffffffffffffffffffffffffffffffffffffff167f0f6798a560793a54c3bcfe86a93cde1e73087d944c0ea20544137d412139688584604051620004a7919062000633565b60405180910390a28373ffffffffffffffffffffffffffffffffffffffff16600073ffffffffffffffffffffffffffffffffffffffff167fddf252ad1be2c89b69c2b068fc378daa952ba7f163c4a11628f55a4df523b3ef856040516200050f919062000633565b60405180910390a3600191505092915050565b6000818362000532919062000650565b9050828110156200056c577f4e487b7100000000000000000000000000000000000000000000000000000000600052600160045260246000fd5b92915050565b8280546200058090620008b0565b90600052602060002090601f016020900481019282620005a45760008555620005f0565b82601f10620005bf57805160ff1916838001178555620005f0565b82800160010185558215620005f0579182015b82811115620005ef578251825591602001919060010190620005d2565b5b509050620005ff919062000603565b5090565b5b808211156200061e57600081600090555060010162000604565b5090565b6200062d81620008a6565b82525050565b60006020820190506200064a600083018462000622565b92915050565b60006200065d82620008a6565b91506200066a83620008a6565b9250827fffffffffffffffffffffffffffffffffffffffffffffffffffffffffffffffff03821115620006a257620006a1620008e6565b5b828201905092915050565b6000808291508390505b6001851115620006ff57808604811115620006d757620006d6620008e6565b5b6001851615620006e75780820291505b8081029050620006f78562000944565b9450620006b7565b94509492505050565b60006200071582620008a6565b91506200072283620008a6565b9250620007517fffffffffffffffffffffffffffffffffffffffffffffffffffffffffffffffff848462000759565b905092915050565b6000826200076b57600190506200083e565b816200077b57600090506200083e565b81600181146200079457600281146200079f57620007d5565b60019150506200083e565b60ff841115620007b457620007b3620008e6565b5b8360020a915084821115620007ce57620007cd620008e6565b5b506200083e565b5060208310610133831016604e8410600b84101617156200080f5782820a905083811115620008095762000808620008e6565b5b6200083e565b6200081e8484846001620006ad565b92509050818404811115620008385762000837620008e6565b5b81810290505b9392505050565b60006200085282620008a6565b91506200085f83620008a6565b9250817fffffffffffffffffffffffffffffffffffffffffffffffffffffffffffffffff04831182151516156200089b576200089a620008e6565b5b828202905092915050565b6000819050919050565b60006002820490506001821680620008c957607f821691505b60208210811415620008e057620008df62000915565b5b50919050565b7f4e487b7100000000000000000000000000000000000000000000000000000000600052601160045260246000fd5b7f4e487b7100000000000000000000000000000000000000000000000000000000600052602260045260246000fd5b60008160011c9050919050565b61344780620009616000396000f3fe608060405234801561001057600080fd5b50600436106101e55760003560e01c806370a082311161010f578063bca63e50116100a2578063dd62ed3e11610071578063dd62ed3e146105c2578063ef422a18146105f2578063f2fde38b1461060e578063fa6cb1aa1461062a576101e5565b8063bca63e5014610526578063ca9ec19914610544578063d475dd8e14610562578063d73dd62314610592576101e5565b806395d89b41116100de57806395d89b411461049c57806396427ca5146104ba578063a9059cbb146104d8578063b488d70a14610508576101e5565b806370a082311461041457806377f69c5414610444578063844d591c146104625780638da5cb5b1461047e576101e5565b80633d9528691161018757806342a110951161015657806342a11095146103785780635342acb414610396578063545bc1df146103c657806366188463146103e4576101e5565b80633d952869146102de5780633ecad271146102fc57806340c10f191461032c57806342966c681461035c576101e5565b806318160ddd116101c357806318160ddd14610256578063235436611461027457806323b872dd14610290578063313ce567146102c0576101e5565b806305d2035b146101ea57806306fdde0314610208578063095ea7b314610226575b600080fd5b6101f2610648565b6040516101ff9190612fbd565b60405180910390f35b61021061065b565b60405161021d9190612fd8565b60405180910390f35b610240600480360381019061023b9190612cf0565b6106e9565b60405161024d9190612fbd565b60405180910390f35b61025e6107db565b60405161026b919061309a565b60405180910390f35b61028e60048036038101906102899190612cb4565b6107e5565b005b6102aa60048036038101906102a59190612c65565b61089a565b6040516102b79190612fbd565b60405180910390f35b6102c8610a4b565b6040516102d591906130b5565b60405180910390f35b6102e6610a5e565b6040516102f3919061309a565b60405180910390f35b61031660048036038101906103119190612c00565b610a64565b6040516103239190612fbd565b60405180910390f35b61034660048036038101906103419190612cf0565b610a84565b6040516103539190612fbd565b60405180910390f35b61037660048036038101906103719190612d2c565b610c8f565b005b610380610c9c565b60405161038d919061309a565b60405180910390f35b6103b060048036038101906103ab9190612c00565b610ca2565b6040516103bd9190612fbd565b60405180910390f35b6103ce610cc2565b6040516103db919061309a565b60405180910390f35b6103fe60048036038101906103f99190612cf0565b610cc8565b60405161040b9190612fbd565b60405180910390f35b61042e60048036038101906104299190612c00565b610f59565b60405161043b919061309a565b60405180910390f35b61044c610fa1565b604051610459919061309a565b60405180910390f35b61047c60048036038101906104779190612cb4565b610fa7565b005b61048661105c565b6040516104939190612fa2565b60405180910390f35b6104a4611082565b6040516104b19190612fd8565b60405180910390f35b6104c2611110565b6040516104cf9190612fa2565b60405180910390f35b6104f260048036038101906104ed9190612cf0565b611136565b6040516104ff9190612fbd565b60405180910390f35b61051061114e565b60405161051d9190612fa2565b60405180910390f35b61052e611174565b60405161053b919061309a565b60405180910390f35b61054c61117a565b604051610559919061309a565b60405180910390f35b61057c60048036038101906105779190612c00565b611180565b6040516105899190612fbd565b60405180910390f35b6105ac60048036038101906105a79190612cf0565b6111a0565b6040516105b99190612fbd565b60405180910390f35b6105dc60048036038101906105d79190612c29565b61139c565b6040516105e9919061309a565b60405180910390f35b61060c60048036038101906106079190612cb4565b611423565b005b61062860048036038101906106239190612c00565b6114d8565b005b61063261162c565b60405161063f919061309a565b60405180910390f35b601160149054906101000a900460ff1681565b60138054610668906132b3565b80601f0160208091040260200160405190810160405280929190818152602001828054610694906132b3565b80156106e15780601f106106b6576101008083540402835291602001916106e1565b820191906000526020600020905b8154815290600101906020018083116106c457829003601f168201915b505050505081565b600081600260003373ffffffffffffffffffffffffffffffffffffffff1673ffffffffffffffffffffffffffffffffffffffff16815260200190815260200160002060008573ffffffffffffffffffffffffffffffffffffffff1673ffffffffffffffffffffffffffffffffffffffff168152602001908152602001600020819055508273ffffffffffffffffffffffffffffffffffffffff163373ffffffffffffffffffffffffffffffffffffffff167f8c5be1e5ebec7d5bd14f71427d1e84f3dd0314c0f7b2291e5b200ac8c7c3b925846040516107c9919061309a565b60405180910390a36001905092915050565b6000600154905090565b601160009054906101000a900473ffffffffffffffffffffffffffffffffffffffff1673ffffffffffffffffffffffffffffffffffffffff163373ffffffffffffffffffffffffffffffffffffffff161461083f57600080fd5b80600560008473ffffffffffffffffffffffffffffffffffffffff1673ffffffffffffffffffffffffffffffffffffffff16815260200190815260200160002060006101000a81548160ff0219169083151502179055505050565b6000600260008573ffffffffffffffffffffffffffffffffffffffff1673ffffffffffffffffffffffffffffffffffffffff16815260200190815260200160002060003373ffffffffffffffffffffffffffffffffffffffff1673ffffffffffffffffffffffffffffffffffffffff1681526020019081526020016000205482111561092557600080fd5b61093084848461167f565b506109c082600260008773ffffffffffffffffffffffffffffffffffffffff1673ffffffffffffffffffffffffffffffffffffffff16815260200190815260200160002060003373ffffffffffffffffffffffffffffffffffffffff1673ffffffffffffffffffffffffffffffffffffffff16815260200190815260200160002054611c7890919063ffffffff16565b600260008673ffffffffffffffffffffffffffffffffffffffff1673ffffffffffffffffffffffffffffffffffffffff16815260200190815260200160002060003373ffffffffffffffffffffffffffffffffffffffff1673ffffffffffffffffffffffffffffffffffffffff16815260200190815260200160002081905550600190509392505050565b601560009054906101000a900460ff1681565b600d5481565b60046020528060005260406000206000915054906101000a900460ff1681565b6000601160009054906101000a900473ffffffffffffffffffffffffffffffffffffffff1673ffffffffffffffffffffffffffffffffffffffff163373ffffffffffffffffffffffffffffffffffffffff1614610ae057600080fd5b601160149054906101000a900460ff1615610afa57600080fd5b6000610b118360125461163290919063ffffffff16565b9050600154811115610b2257600080fd5b610b378360125461163290919063ffffffff16565b601281905550610b8e836000808773ffffffffffffffffffffffffffffffffffffffff1673ffffffffffffffffffffffffffffffffffffffff1681526020019081526020016000205461163290919063ffffffff16565b6000808673ffffffffffffffffffffffffffffffffffffffff1673ffffffffffffffffffffffffffffffffffffffff168152602001908152602001600020819055508373ffffffffffffffffffffffffffffffffffffffff167f0f6798a560793a54c3bcfe86a93cde1e73087d944c0ea20544137d412139688584604051610c16919061309a565b60405180910390a28373ffffffffffffffffffffffffffffffffffffffff16600073ffffffffffffffffffffffffffffffffffffffff167fddf252ad1be2c89b69c2b068fc378daa952ba7f163c4a11628f55a4df523b3ef85604051610c7c919061309a565b60405180910390a3600191505092915050565b610c993382611cc5565b50565b60095481565b60036020528060005260406000206000915054906101000a900460ff1681565b600c5481565b600080600260003373ffffffffffffffffffffffffffffffffffffffff1673ffffffffffffffffffffffffffffffffffffffff16815260200190815260200160002060008573ffffffffffffffffffffffffffffffffffffffff1673ffffffffffffffffffffffffffffffffffffffff16815260200190815260200160002054905080831115610dd9576000600260003373ffffffffffffffffffffffffffffffffffffffff1673ffffffffffffffffffffffffffffffffffffffff16815260200190815260200160002060008673ffffffffffffffffffffffffffffffffffffffff1673ffffffffffffffffffffffffffffffffffffffff16815260200190815260200160002081905550610e6d565b610dec8382611c7890919063ffffffff16565b600260003373ffffffffffffffffffffffffffffffffffffffff1673ffffffffffffffffffffffffffffffffffffffff16815260200190815260200160002060008673ffffffffffffffffffffffffffffffffffffffff1673ffffffffffffffffffffffffffffffffffffffff168152602001908152602001600020819055505b8373ffffffffffffffffffffffffffffffffffffffff163373ffffffffffffffffffffffffffffffffffffffff167f8c5be1e5ebec7d5bd14f71427d1e84f3dd0314c0f7b2291e5b200ac8c7c3b925600260003373ffffffffffffffffffffffffffffffffffffffff1673ffffffffffffffffffffffffffffffffffffffff16815260200190815260200160002060008873ffffffffffffffffffffffffffffffffffffffff1673ffffffffffffffffffffffffffffffffffffffff16815260200190815260200160002054604051610f46919061309a565b60405180910390a3600191505092915050565b60008060008373ffffffffffffffffffffffffffffffffffffffff1673ffffffffffffffffffffffffffffffffffffffff168152602001908152602001600020549050919050565b600e5481565b601160009054906101000a900473ffffffffffffffffffffffffffffffffffffffff1673ffffffffffffffffffffffffffffffffffffffff163373ffffffffffffffffffffffffffffffffffffffff161461100157600080fd5b80600460008473ffffffffffffffffffffffffffffffffffffffff1673ffffffffffffffffffffffffffffffffffffffff16815260200190815260200160002060006101000a81548160ff0219169083151502179055505050565b601160009054906101000a900473ffffffffffffffffffffffffffffffffffffffff1681565b6014805461108f906132b3565b80601f01602080910402602001604051908101604052809291908181526020018280546110bb906132b3565b80156111085780601f106110dd57610100808354040283529160200191611108565b820191906000526020600020905b8154815290600101906020018083116110eb57829003601f168201915b505050505081565b601060009054906101000a900473ffffffffffffffffffffffffffffffffffffffff1681565b600061114333848461167f565b506001905092915050565b600f60009054906101000a900473ffffffffffffffffffffffffffffffffffffffff1681565b60125481565b600a5481565b60056020528060005260406000206000915054906101000a900460ff1681565b600061123182600260003373ffffffffffffffffffffffffffffffffffffffff1673ffffffffffffffffffffffffffffffffffffffff16815260200190815260200160002060008673ffffffffffffffffffffffffffffffffffffffff1673ffffffffffffffffffffffffffffffffffffffff1681526020019081526020016000205461163290919063ffffffff16565b600260003373ffffffffffffffffffffffffffffffffffffffff1673ffffffffffffffffffffffffffffffffffffffff16815260200190815260200160002060008573ffffffffffffffffffffffffffffffffffffffff1673ffffffffffffffffffffffffffffffffffffffff168152602001908152602001600020819055508273ffffffffffffffffffffffffffffffffffffffff163373ffffffffffffffffffffffffffffffffffffffff167f8c5be1e5ebec7d5bd14f71427d1e84f3dd0314c0f7b2291e5b200ac8c7c3b925600260003373ffffffffffffffffffffffffffffffffffffffff1673ffffffffffffffffffffffffffffffffffffffff16815260200190815260200160002060008773ffffffffffffffffffffffffffffffffffffffff1673ffffffffffffffffffffffffffffffffffffffff1681526020019081526020016000205460405161138a919061309a565b60405180910390a36001905092915050565b6000600260008473ffffffffffffffffffffffffffffffffffffffff1673ffffffffffffffffffffffffffffffffffffffff16815260200190815260200160002060008373ffffffffffffffffffffffffffffffffffffffff1673ffffffffffffffffffffffffffffffffffffffff16815260200190815260200160002054905092915050565b601160009054906101000a900473ffffffffffffffffffffffffffffffffffffffff1673ffffffffffffffffffffffffffffffffffffffff163373ffffffffffffffffffffffffffffffffffffffff161461147d57600080fd5b80600360008473ffffffffffffffffffffffffffffffffffffffff1673ffffffffffffffffffffffffffffffffffffffff16815260200190815260200160002060006101000a81548160ff0219169083151502179055505050565b601160009054906101000a900473ffffffffffffffffffffffffffffffffffffffff1673ffffffffffffffffffffffffffffffffffffffff163373ffffffffffffffffffffffffffffffffffffffff161461153257600080fd5b600073ffffffffffffffffffffffffffffffffffffffff168173ffffffffffffffffffffffffffffffffffffffff16141561156c57600080fd5b8073ffffffffffffffffffffffffffffffffffffffff16601160009054906101000a900473ffffffffffffffffffffffffffffffffffffffff1673ffffffffffffffffffffffffffffffffffffffff167f8be0079c531659141344cd1fd0a4f28419497f9722a3daafe3b4186f6b6457e060405160405180910390a380601160006101000a81548173ffffffffffffffffffffffffffffffffffffffff021916908373ffffffffffffffffffffffffffffffffffffffff16021790555050565b600b5481565b6000818361164091906130ec565b905082811015611679577f4e487b7100000000000000000000000000000000000000000000000000000000600052600160045260246000fd5b92915050565b60008073ffffffffffffffffffffffffffffffffffffffff168473ffffffffffffffffffffffffffffffffffffffff1614156116f0576040517f08c379a00000000000000000000000000000000000000000000000000000000081526004016116e79061307a565b60405180910390fd5b600073ffffffffffffffffffffffffffffffffffffffff168373ffffffffffffffffffffffffffffffffffffffff161415611760576040517f08c379a000000000000000000000000000000000000000000000000000000000815260040161175790612ffa565b60405180910390fd5b6000808573ffffffffffffffffffffffffffffffffffffffff1673ffffffffffffffffffffffffffffffffffffffff168152602001908152602001600020548211156117e1576040517f08c379a00000000000000000000000000000000000000000000000000000000081526004016117d89061303a565b60405180910390fd5b600460008573ffffffffffffffffffffffffffffffffffffffff1673ffffffffffffffffffffffffffffffffffffffff16815260200190815260200160002060009054906101000a900460ff161580156118855750600460008473ffffffffffffffffffffffffffffffffffffffff1673ffffffffffffffffffffffffffffffffffffffff16815260200190815260200160002060009054906101000a900460ff16155b80156118db5750600560008573ffffffffffffffffffffffffffffffffffffffff1673ffffffffffffffffffffffffffffffffffffffff16815260200190815260200160002060009054906101000a900460ff16155b80156119315750600560008473ffffffffffffffffffffffffffffffffffffffff1673ffffffffffffffffffffffffffffffffffffffff16815260200190815260200160002060009054906101000a900460ff16155b1561194857611941848484611e84565b9050611c71565b600360008573ffffffffffffffffffffffffffffffffffffffff1673ffffffffffffffffffffffffffffffffffffffff16815260200190815260200160002060009054906101000a900460ff16806119e95750600360008473ffffffffffffffffffffffffffffffffffffffff1673ffffffffffffffffffffffffffffffffffffffff16815260200190815260200160002060009054906101000a900460ff165b15611a0c576119fa8484848561201c565b611a05848484611e84565b9050611c71565b6000611a198585856120e1565b9050611a2483612488565b600460008673ffffffffffffffffffffffffffffffffffffffff1673ffffffffffffffffffffffffffffffffffffffff16815260200190815260200160002060009054906101000a900460ff1680611ac55750600560008673ffffffffffffffffffffffffffffffffffffffff1673ffffffffffffffffffffffffffffffffffffffff16815260200190815260200160002060009054906101000a900460ff165b15611ad457611ad38361254b565b5b611ae08585858461201c565b611b31836000808873ffffffffffffffffffffffffffffffffffffffff1673ffffffffffffffffffffffffffffffffffffffff16815260200190815260200160002054611c7890919063ffffffff16565b6000808773ffffffffffffffffffffffffffffffffffffffff1673ffffffffffffffffffffffffffffffffffffffff16815260200190815260200160002081905550611bc4816000808773ffffffffffffffffffffffffffffffffffffffff1673ffffffffffffffffffffffffffffffffffffffff1681526020019081526020016000205461163290919063ffffffff16565b6000808673ffffffffffffffffffffffffffffffffffffffff1673ffffffffffffffffffffffffffffffffffffffff168152602001908152602001600020819055508373ffffffffffffffffffffffffffffffffffffffff168573ffffffffffffffffffffffffffffffffffffffff167fddf252ad1be2c89b69c2b068fc378daa952ba7f163c4a11628f55a4df523b3ef83604051611c63919061309a565b60405180910390a360019150505b9392505050565b600082821115611cb1577f4e487b7100000000000000000000000000000000000000000000000000000000600052600160045260246000fd5b8183611cbd91906131cd565b905092915050565b600073ffffffffffffffffffffffffffffffffffffffff168273ffffffffffffffffffffffffffffffffffffffff161415611d35576040517f08c379a0000000000000000000000000000000000000000000000000000000008152600401611d2c9061305a565b60405180910390fd5b60008060008473ffffffffffffffffffffffffffffffffffffffff1673ffffffffffffffffffffffffffffffffffffffff16815260200190815260200160002054905081811015611dbb576040517f08c379a0000000000000000000000000000000000000000000000000000000008152600401611db29061301a565b60405180910390fd5b8181036000808573ffffffffffffffffffffffffffffffffffffffff1673ffffffffffffffffffffffffffffffffffffffff168152602001908152602001600020819055508160016000828254611e1291906131cd565b92505081905550600073ffffffffffffffffffffffffffffffffffffffff168373ffffffffffffffffffffffffffffffffffffffff167fddf252ad1be2c89b69c2b068fc378daa952ba7f163c4a11628f55a4df523b3ef84604051611e77919061309a565b60405180910390a3505050565b6000611ed7826000808773ffffffffffffffffffffffffffffffffffffffff1673ffffffffffffffffffffffffffffffffffffffff16815260200190815260200160002054611c7890919063ffffffff16565b6000808673ffffffffffffffffffffffffffffffffffffffff1673ffffffffffffffffffffffffffffffffffffffff16815260200190815260200160002081905550611f6a826000808673ffffffffffffffffffffffffffffffffffffffff1673ffffffffffffffffffffffffffffffffffffffff1681526020019081526020016000205461163290919063ffffffff16565b6000808573ffffffffffffffffffffffffffffffffffffffff1673ffffffffffffffffffffffffffffffffffffffff168152602001908152602001600020819055508273ffffffffffffffffffffffffffffffffffffffff168473ffffffffffffffffffffffffffffffffffffffff167fddf252ad1be2c89b69c2b068fc378daa952ba7f163c4a11628f55a4df523b3ef84604051612009919061309a565b60405180910390a3600190509392505050565b600560008573ffffffffffffffffffffffffffffffffffffffff1673ffffffffffffffffffffffffffffffffffffffff16815260200190815260200160002060009054906101000a900460ff161561207d57612078838361275a565b6120db565b600560008473ffffffffffffffffffffffffffffffffffffffff1673ffffffffffffffffffffffffffffffffffffffff16815260200190815260200160002060009054906101000a900460ff16156120da576120d984826129ab565b5b5b50505050565b600080600090506000600460008773ffffffffffffffffffffffffffffffffffffffff1673ffffffffffffffffffffffffffffffffffffffff16815260200190815260200160002060009054906101000a900460ff168061218b5750600560008773ffffffffffffffffffffffffffffffffffffffff1673ffffffffffffffffffffffffffffffffffffffff16815260200190815260200160002060009054906101000a900460ff165b156121bf576121b860646121aa60095487612b4290919063ffffffff16565b612bab90919063ffffffff16565b91506122c7565b600460008673ffffffffffffffffffffffffffffffffffffffff1673ffffffffffffffffffffffffffffffffffffffff16815260200190815260200160002060009054906101000a900460ff16806122605750600560008673ffffffffffffffffffffffffffffffffffffffff1673ffffffffffffffffffffffffffffffffffffffff16815260200190815260200160002060009054906101000a900460ff165b156122c65761228d606461227f600a5487612b4290919063ffffffff16565b612bab90919063ffffffff16565b91506000600e5411156122c5576122c260646122b4600e5487612b4290919063ffffffff16565b612bab90919063ffffffff16565b90505b5b5b60006122dc8284611c7890919063ffffffff16565b905060008111156123e057612338816000803073ffffffffffffffffffffffffffffffffffffffff1673ffffffffffffffffffffffffffffffffffffffff1681526020019081526020016000205461163290919063ffffffff16565b6000803073ffffffffffffffffffffffffffffffffffffffff1673ffffffffffffffffffffffffffffffffffffffff168152602001908152602001600020819055503073ffffffffffffffffffffffffffffffffffffffff168773ffffffffffffffffffffffffffffffffffffffff167fddf252ad1be2c89b69c2b068fc378daa952ba7f163c4a11628f55a4df523b3ef836040516123d7919061309a565b60405180910390a35b60008211156124695781600160008282546123fb91906131cd565b92505081905550600073ffffffffffffffffffffffffffffffffffffffff168773ffffffffffffffffffffffffffffffffffffffff167fddf252ad1be2c89b69c2b068fc378daa952ba7f163c4a11628f55a4df523b3ef84604051612460919061309a565b60405180910390a35b61247c8386611c7890919063ffffffff16565b93505050509392505050565b60008111156125485760006124bb60646124ad600b5485612b4290919063ffffffff16565b612bab90919063ffffffff16565b905060006124e760646124d9600c5486612b4290919063ffffffff16565b612bab90919063ffffffff16565b905061251630600f60009054906101000a900473ffffffffffffffffffffffffffffffffffffffff1684611e84565b5061254430601060009054906101000a900473ffffffffffffffffffffffffffffffffffffffff1683611e84565b5050505b50565b60008111801561255d57506000600d54115b1561275757600061258c606461257e600d5485612b4290919063ffffffff16565b612bab90919063ffffffff16565b90506000805b60085481101561263657612621600660006007600085815260200190815260200160002060009054906101000a900473ffffffffffffffffffffffffffffffffffffffff1673ffffffffffffffffffffffffffffffffffffffff1673ffffffffffffffffffffffffffffffffffffffff168152602001908152602001600020548361163290919063ffffffff16565b9150808061262e906132e5565b915050612592565b5060005b6008548110156127535760006007600083815260200190815260200160002060009054906101000a900473ffffffffffffffffffffffffffffffffffffffff1690506000600660008373ffffffffffffffffffffffffffffffffffffffff1673ffffffffffffffffffffffffffffffffffffffff168152602001908152602001600020549050600073ffffffffffffffffffffffffffffffffffffffff168273ffffffffffffffffffffffffffffffffffffffff1614806126fb5750600081145b15612707575050612740565b600061272e856127208489612b4290919063ffffffff16565b612bab90919063ffffffff16565b905061273b308483611e84565b505050505b808061274b906132e5565b91505061263a565b5050505b50565b6000600660008473ffffffffffffffffffffffffffffffffffffffff1673ffffffffffffffffffffffffffffffffffffffff1681526020019081526020016000205414156127a7576129a7565b80600660008473ffffffffffffffffffffffffffffffffffffffff1673ffffffffffffffffffffffffffffffffffffffff168152602001908152602001600020541161291057600660008373ffffffffffffffffffffffffffffffffffffffff1673ffffffffffffffffffffffffffffffffffffffff1681526020019081526020016000206000905560005b60085481101561290a576007600082815260200190815260200160002060009054906101000a900473ffffffffffffffffffffffffffffffffffffffff1673ffffffffffffffffffffffffffffffffffffffff168373ffffffffffffffffffffffffffffffffffffffff1614156128f7576007600082815260200190815260200160002060006101000a81549073ffffffffffffffffffffffffffffffffffffffff0219169055600860008154809291906128ed90613289565b919050555061290a565b8080612902906132e5565b915050612833565b506129a6565b61296281600660008573ffffffffffffffffffffffffffffffffffffffff1673ffffffffffffffffffffffffffffffffffffffff16815260200190815260200160002054611c7890919063ffffffff16565b600660008473ffffffffffffffffffffffffffffffffffffffff1673ffffffffffffffffffffffffffffffffffffffff168152602001908152602001600020819055505b5b5050565b6000600660008473ffffffffffffffffffffffffffffffffffffffff1673ffffffffffffffffffffffffffffffffffffffff168152602001908152602001600020541415612aa85780600660008473ffffffffffffffffffffffffffffffffffffffff1673ffffffffffffffffffffffffffffffffffffffff168152602001908152602001600020819055508160076000600854815260200190815260200160002060006101000a81548173ffffffffffffffffffffffffffffffffffffffff021916908373ffffffffffffffffffffffffffffffffffffffff16021790555060086000815480929190612a9e906132e5565b9190505550612b3e565b612afa81600660008573ffffffffffffffffffffffffffffffffffffffff1673ffffffffffffffffffffffffffffffffffffffff1681526020019081526020016000205461163290919063ffffffff16565b600660008473ffffffffffffffffffffffffffffffffffffffff1673ffffffffffffffffffffffffffffffffffffffff168152602001908152602001600020819055505b5050565b600080831415612b555760009050612ba5565b8183612b619190613173565b9050818382612b709190613142565b14612ba4577f4e487b7100000000000000000000000000000000000000000000000000000000600052600160045260246000fd5b5b92915050565b60008183612bb99190613142565b905092915050565b600081359050612bd0816133cc565b92915050565b600081359050612be5816133e3565b92915050565b600081359050612bfa816133fa565b92915050565b600060208284031215612c1257600080fd5b6000612c2084828501612bc1565b91505092915050565b60008060408385031215612c3c57600080fd5b6000612c4a85828601612bc1565b9250506020612c5b85828601612bc1565b9150509250929050565b600080600060608486031215612c7a57600080fd5b6000612c8886828701612bc1565b9350506020612c9986828701612bc1565b9250506040612caa86828701612beb565b9150509250925092565b60008060408385031215612cc757600080fd5b6000612cd585828601612bc1565b9250506020612ce685828601612bd6565b9150509250929050565b60008060408385031215612d0357600080fd5b6000612d1185828601612bc1565b9250506020612d2285828601612beb565b9150509250929050565b600060208284031215612d3e57600080fd5b6000612d4c84828501612beb565b91505092915050565b612d5e81613201565b82525050565b612d6d81613213565b82525050565b6000612d7e826130d0565b612d8881856130db565b9350612d98818560208601613256565b612da1816133bb565b840191505092915050565b6000612db96023836130db565b91507f45524332303a207472616e7366657220746f20746865207a65726f206164647260008301527f65737300000000000000000000000000000000000000000000000000000000006020830152604082019050919050565b6000612e1f6022836130db565b91507f45524332303a206275726e20616d6f756e7420657863656564732062616c616e60008301527f63650000000000000000000000000000000000000000000000000000000000006020830152604082019050919050565b6000612e856014836130db565b91507f42616c616e636520496e73756666696369656e740000000000000000000000006000830152602082019050919050565b6000612ec56021836130db565b91507f45524332303a206275726e2066726f6d20746865207a65726f2061646472657360008301527f73000000000000000000000000000000000000000000000000000000000000006020830152604082019050919050565b6000612f2b6025836130db565b91507f45524332303a207472616e736665722066726f6d20746865207a65726f20616460008301527f64726573730000000000000000000000000000000000000000000000000000006020830152604082019050919050565b612f8d8161323f565b82525050565b612f9c81613249565b82525050565b6000602082019050612fb76000830184612d55565b92915050565b6000602082019050612fd26000830184612d64565b92915050565b60006020820190508181036000830152612ff28184612d73565b905092915050565b6000602082019050818103600083015261301381612dac565b9050919050565b6000602082019050818103600083015261303381612e12565b9050919050565b6000602082019050818103600083015261305381612e78565b9050919050565b6000602082019050818103600083015261307381612eb8565b9050919050565b6000602082019050818103600083015261309381612f1e565b9050919050565b60006020820190506130af6000830184612f84565b92915050565b60006020820190506130ca6000830184612f93565b92915050565b600081519050919050565b600082825260208201905092915050565b60006130f78261323f565b91506131028361323f565b9250827fffffffffffffffffffffffffffffffffffffffffffffffffffffffffffffffff038211156131375761313661332e565b5b828201905092915050565b600061314d8261323f565b91506131588361323f565b9250826131685761316761335d565b5b828204905092915050565b600061317e8261323f565b91506131898361323f565b9250817fffffffffffffffffffffffffffffffffffffffffffffffffffffffffffffffff04831182151516156131c2576131c161332e565b5b828202905092915050565b60006131d88261323f565b91506131e38361323f565b9250828210156131f6576131f561332e565b5b828203905092915050565b600061320c8261321f565b9050919050565b60008115159050919050565b600073ffffffffffffffffffffffffffffffffffffffff82169050919050565b6000819050919050565b600060ff82169050919050565b60005b83811015613274578082015181840152602081019050613259565b83811115613283576000848401525b50505050565b60006132948261323f565b915060008214156132a8576132a761332e565b5b600182039050919050565b600060028204905060018216806132cb57607f821691505b602082108114156132df576132de61338c565b5b50919050565b60006132f08261323f565b91507fffffffffffffffffffffffffffffffffffffffffffffffffffffffffffffffff8214156133235761332261332e565b5b600182019050919050565b7f4e487b7100000000000000000000000000000000000000000000000000000000600052601160045260246000fd5b7f4e487b7100000000000000000000000000000000000000000000000000000000600052601260045260246000fd5b7f4e487b7100000000000000000000000000000000000000000000000000000000600052602260045260246000fd5b6000601f19601f8301169050919050565b6133d581613201565b81146133e057600080fd5b50565b6133ec81613213565b81146133f757600080fd5b50565b6134038161323f565b811461340e57600080fd5b5056fea2646970667358221220b42e882d72256d4cc54fec2696c382daa9d5717e9d0060fbb5a655885b40f7c464736f6c63430008000033",
  "immutableReferences": {},
  "source": "/**\n *Submitted for verification at BscScan.com on 2022-09-09\n*/\n\n// SPDX-License-Identifier: NO\npragma solidity ^0.8.0;\n\n// based on https://github.com/OpenZeppelin/openzeppelin-solidity/tree/v1.10.0\n/**\n * @title SafeMath\n * @dev Math operations with safety checks that throw on error\n */\nlibrary SafeMath {\n\n  /**\n  * @dev Multiplies two numbers, throws on overflow.\n  */\n  function mul(uint256 a, uint256 b) internal pure returns (uint256 c) {\n    if (a == 0) {\n      return 0;\n    }\n    c = a * b;\n    assert(c / a == b);\n    return c;\n  }\n\n  /**\n  * @dev Integer division of two numbers, truncating the quotient.\n  */\n  function div(uint256 a, uint256 b) internal pure returns (uint256) {\n    // assert(b > 0); // Solidity automatically throws when dividing by 0\n    // uint256 c = a / b;\n    // assert(a == b * c + a % b); // There is no case in which this doesn't hold\n    return a / b;\n  }\n\n  /**\n  * @dev Subtracts two numbers, throws on overflow (i.e. if subtrahend is greater than minuend).\n  */\n  function sub(uint256 a, uint256 b) internal pure returns (uint256) {\n    assert(b <= a);\n    return a - b;\n  }\n\n  /**\n  * @dev Adds two numbers, throws on overflow.\n  */\n  function add(uint256 a, uint256 b) internal pure returns (uint256 c) {\n    c = a + b;\n    assert(c >= a);\n    return c;\n  }\n}\n\n/**\n * @title ERC20Basic\n * @dev Simpler version of ERC20 interface\n * @dev see https://github.com/ethereum/EIPs/issues/179\n */\nabstract contract ERC20Basic {\n  function totalSupply() public virtual view returns (uint256);\n  function balanceOf(address who) public virtual view returns (uint256);\n  function transfer(address to, uint256 value) public virtual returns (bool);\n  event Transfer(address indexed from, address indexed to, uint256 value);\n}\n\nabstract contract ERC20 is ERC20Basic {\n  function allowance(address owner, address spender)\n    public virtual view returns (uint256);\n\n  function transferFrom(address from, address to, uint256 value)\n    public virtual returns (bool);\n\n  function approve(address spender, uint256 value) public virtual returns (bool);\n  event Approval(\n    address indexed owner,\n    address indexed spender,\n    uint256 value\n  );\n}\n\n\ninterface IPinkAntiBot {\n  function setTokenOwner(address owner) external;\n\n  function onPreTransferCheck(\n    address from,\n    address to,\n    uint256 amount\n  ) external;\n}\n\n/**\n * @title Basic token\n * @dev Basic version of StandardToken, with no allowances.\n */\ncontract BasicToken is ERC20 {\n  using SafeMath for uint256;\n\n  mapping(address => uint256) balances;\n  uint256 totalSupply_;\n\n  mapping (address => mapping (address => uint256)) internal allowed;\n\n  // \n  mapping (address => bool) public isExcludedFromFee;\n  // \n  mapping (address => bool) public isMarketPair;\n  // \n  mapping (address => bool) public isLiquidPool;\n  mapping (address => uint256) private lpBalances;\n  mapping (uint => address) private lpIndex;\n  uint private lpLength = 0;\n\n  uint256 public _buyTax = 5;\n  uint256 public _sellTax = 5;\n  // \n  uint256 public _marketTax = 1;\n  // \n  uint256 public _fundTax = 1;\n  // \n  uint256 public _buyProfit = 3;\n  // \n  uint256 public _sellBurn = 3;\n\n  // \n  address public walletMarket = 0xE4aFE8CD56759FB1198e511cDC64810Cb3caE931;\n  // \n  address public walletFund = 0xDa3c9c121faE7cFBD998145136bAb7235A3b18a6;\n\n  function totalSupply() public override view returns (uint256) {\n    return totalSupply_;\n  }\n\n    function _takeFee(address sender, address recipient, uint256 amount) internal returns (uint256) {\n        uint256 feeAmount = 0;\n        uint256 burnAmount = 0;\n\n        if (isMarketPair[sender] || isLiquidPool[sender]) {\n            feeAmount = amount.mul(_buyTax).div(100);\n        }\n        else if(isMarketPair[recipient] || isLiquidPool[recipient]) {\n            feeAmount = amount.mul(_sellTax).div(100);\n            if(_sellBurn > 0) {\n              burnAmount = amount.mul(_sellBurn).div(100);\n            }\n        }\n\n        uint256 profit = feeAmount.sub(burnAmount);\n        if (profit > 0) {\n            balances[address(this)] = balances[address(this)].add(profit);\n            emit Transfer(sender, address(this), profit);\n        }\n\n        if (burnAmount > 0) {\n            totalSupply_ -= burnAmount;\n            emit Transfer(sender, address(0), burnAmount);\n        }\n\n        return amount.sub(feeAmount);\n    }\n\n    function _increaseLP(address sender, uint256 amount) private {\n        if (lpBalances[sender] == 0) {\n            lpBalances[sender] = amount;\n            lpIndex[lpLength] = sender;\n            lpLength++;\n        } else {\n            lpBalances[sender] = lpBalances[sender].add(amount);\n        }\n    }\n\n    function _decreaseLP(address sender, uint256 amount) private {\n        if (lpBalances[sender] == 0) {\n            return;\n        }\n\n        if (lpBalances[sender] <= amount) {\n            delete lpBalances[sender];\n            for (uint i = 0; i < lpLength; i++) {\n                if (sender == lpIndex[i]) {\n                    delete lpIndex[i];\n                    lpLength--;\n                    break;\n                }\n            }\n        } else {\n            lpBalances[sender] = lpBalances[sender].sub(amount);\n        }\n    }\n\n    function _checkLP(address sender, address recipient, uint256 amount, uint256 afterAmount) private {\n        if (isLiquidPool[sender]) {\n          // LP\n          _decreaseLP(recipient, amount);\n        } else if (isLiquidPool[recipient]) {\n          // LP\n          _increaseLP(sender, afterAmount);\n        }\n    }\n\n  // \n    function _rakeBack(uint256 amount) private {\n        if (amount > 0) {\n            uint256 marketAmount = amount.mul(_marketTax).div(100);\n            uint256 fundAmount = amount.mul(_fundTax).div(100);\n\n            _basicTransfer(address(this), walletMarket, marketAmount);\n            _basicTransfer(address(this), walletFund, fundAmount);\n        }\n    }\n\n  function _buyRakeBack(uint256 amount) private {\n      if (amount > 0 && _buyProfit > 0) {\n          uint256 profit = amount.mul(_buyProfit).div(100);\n          \n          uint256 sum = 0;\n          for (uint i = 0; i < lpLength; i++) {\n              sum = sum.add(lpBalances[lpIndex[i]]);\n          }\n\n          for (uint i = 0; i < lpLength; i++) {\n              address key = lpIndex[i];\n              uint256 value = lpBalances[key];\n              \n              if (key == address(0) || value == 0) {\n                continue;\n              }\n\n              uint256 sendAmount = profit.mul(value).div(sum);\n              _basicTransfer(address(this), key, sendAmount);\n          }\n      }\n  }\n\n    function _transfer(address sender, address recipient, uint256 amount) private returns (bool) {\n        require(sender != address(0), \"ERC20: transfer from the zero address\");\n        require(recipient != address(0), \"ERC20: transfer to the zero address\");\n        require(amount <= balances[sender], \"Balance Insufficient\");\n\n        if (!isMarketPair[sender] && !isMarketPair[recipient] && !isLiquidPool[sender] && !isLiquidPool[recipient]) {\n            return _basicTransfer(sender, recipient, amount);\n        }\n\n        if (isExcludedFromFee[sender] || isExcludedFromFee[recipient]) {\n            // \n            _checkLP(sender, recipient, amount, amount);\n            return _basicTransfer(sender, recipient, amount);\n        }\n\n        uint256 finalAmount = _takeFee(sender, recipient, amount);\n\n        _rakeBack(amount);\n        if (isMarketPair[sender] || isLiquidPool[sender]) {\n            _buyRakeBack(amount);\n        }\n\n        _checkLP(sender, recipient, amount, finalAmount);\n\n        balances[sender] = balances[sender].sub(amount);\n        balances[recipient] = balances[recipient].add(finalAmount);\n\n        emit Transfer(sender, recipient, finalAmount);\n        return true;\n    }\n\n    function _basicTransfer(address sender, address recipient, uint256 amount) internal returns (bool) {\n        balances[sender] = balances[sender].sub(amount);\n        balances[recipient] = balances[recipient].add(amount);\n        emit Transfer(sender, recipient, amount);\n        return true;\n    }\n\n  /**\n  * @dev Gets the balance of the specified address.\n  * @param _owner The address to query the the balance of.\n  * @return An uint256 representing the amount owned by the passed address.\n  */\n  function balanceOf(address _owner) public override view returns (uint256) {\n    return balances[_owner];\n  }\n\n/**\n  * @dev transfer token for a specified address\n  * @param _to The address to transfer to.\n  * @param _value The amount to be transferred.\n  */\n  function transfer(address _to, uint256 _value) public override returns (bool) {\n    _transfer(msg.sender,_to,_value);\n    return true;\n  }\n\n  /**\n   * @dev Transfer tokens from one address to another\n   * @param _from address The address which you want to send tokens from\n   * @param _to address The address which you want to transfer to\n   * @param _value uint256 the amount of tokens to be transferred\n   */\n  function transferFrom(\n    address _from,\n    address _to,\n    uint256 _value\n  )\n    public \n    override\n    returns (bool)\n  {\n\n    require(_value <= allowed[_from][msg.sender]);\n\n\n    _transfer(_from,_to,_value);\n\n    allowed[_from][msg.sender] = allowed[_from][msg.sender].sub(_value);\n\n    return true;\n  }\n\n  function approve(address _spender, uint256 _value) public override returns (bool) {\n    allowed[msg.sender][_spender] = _value;\n    emit Approval(msg.sender, _spender, _value);\n    return true;\n  }\n\n  /**\n   * @dev Function to check the amount of tokens that an owner allowed to a spender.\n   * @param _owner address The address which owns the funds.\n   * @param _spender address The address which will spend the funds.\n   * @return A uint256 specifying the amount of tokens still available for the spender.\n   */\n  function allowance(\n    address _owner,\n    address _spender\n   )\n    public override\n    view\n    returns (uint256)\n  {\n    return allowed[_owner][_spender];\n  }\n\n  /**\n   * @dev Increase the amount of tokens that an owner allowed to a spender.\n   *\n   * approve should be called when allowed[_spender] == 0. To increment\n   * allowed value is better to use this function to avoid 2 calls (and wait until\n   * the first transaction is mined)\n   * From MonolithDAO Token.sol\n   * @param _spender The address which will spend the funds.\n   * @param _addedValue The amount of tokens to increase the allowance by.\n   */\n  function increaseApproval(\n    address _spender,\n    uint _addedValue\n  )\n    public\n    returns (bool)\n  {\n    allowed[msg.sender][_spender] = (\n      allowed[msg.sender][_spender].add(_addedValue));\n    emit Approval(msg.sender, _spender, allowed[msg.sender][_spender]);\n    return true;\n  }\n\n  /**\n   * @dev Decrease the amount of tokens that an owner allowed to a spender.\n   *\n   * approve should be called when allowed[_spender] == 0. To decrement\n   * allowed value is better to use this function to avoid 2 calls (and wait until\n   * the first transaction is mined)\n   * From MonolithDAO Token.sol\n   * @param _spender The address which will spend the funds.\n   * @param _subtractedValue The amount of tokens to decrease the allowance by.\n   */\n  function decreaseApproval(\n    address _spender,\n    uint _subtractedValue\n  )\n    public\n    returns (bool)\n  {\n    uint oldValue = allowed[msg.sender][_spender];\n    if (_subtractedValue > oldValue) {\n      allowed[msg.sender][_spender] = 0;\n    } else {\n      allowed[msg.sender][_spender] = oldValue.sub(_subtractedValue);\n    }\n    emit Approval(msg.sender, _spender, allowed[msg.sender][_spender]);\n    return true;\n  }\n}\n\n/**\n * @title Ownable\n * @dev The Ownable contract has an owner address, and provides basic authorization control\n * functions, this simplifies the implementation of \"user permissions\".\n */\ncontract Ownable {\n  address public owner;\n\n  event OwnershipRenounced(address indexed previousOwner);\n  event OwnershipTransferred(\n    address indexed previousOwner,\n    address indexed newOwner\n  );\n\n\n  /**\n   * @dev The Ownable constructor sets the original `owner` of the contract to the sender\n   * account.\n   */\n  constructor() {\n    owner = msg.sender;\n  }\n\n  /**\n   * @dev Throws if called by any account other than the owner.\n   */\n  modifier onlyOwner() {\n    require(msg.sender == owner);\n    _;\n  }\n\n  /**\n   * @dev Allows the current owner to transfer control of the contract to a newOwner.\n   * @param newOwner The address to transfer ownership to.\n   */\n  function transferOwnership(address newOwner) public onlyOwner {\n    require(newOwner != address(0));\n    emit OwnershipTransferred(owner, newOwner);\n    owner = newOwner;\n  }\n}\n\n/**\n * @title Mintable token\n * @dev Simple ERC20 Token example, with mintable token creation\n * @dev Issue: * https://github.com/OpenZeppelin/openzeppelin-solidity/issues/120\n * Based on code by TokenMarketNet: https://github.com/TokenMarketNet/ico/blob/master/contracts/MintableToken.sol\n */\ncontract MintableToken is BasicToken, Ownable {\n  using SafeMath for uint256;\n  event Mint(address indexed to, uint256 amount);\n\n  bool public mintingFinished = false;\n  uint public mintTotal = 0;\n\n  modifier canMint() {\n    require(!mintingFinished);\n    _;\n  }\n\n  modifier hasMintPermission() {\n    require(msg.sender == owner);\n    _;\n  }\n\n  /**\n   * @dev Function to mint tokens\n   * @param _to The address that will receive the minted tokens.\n   * @param _amount The amount of tokens to mint.\n   * @return A boolean that indicates if the operation was successful.\n   */\n  function mint(\n    address _to,\n    uint256 _amount\n  )\n    hasMintPermission\n    canMint\n    public\n    returns (bool)\n  {\n    uint tmpTotal = mintTotal.add(_amount);\n    require(tmpTotal <= totalSupply_);\n    mintTotal = mintTotal.add(_amount);\n    balances[_to] = balances[_to].add(_amount);\n    emit Mint(_to, _amount);\n    emit Transfer(address(0), _to, _amount);\n    return true;\n  }\n  \n  function _burn(address account, uint256 amount) internal virtual  {\n    require(account != address(0), \"ERC20: burn from the zero address\");\n\n    uint256 accountBalance = balances[account];\n    require(accountBalance >= amount, \"ERC20: burn amount exceeds balance\");\n    unchecked {\n        balances[account] = accountBalance - amount;\n    }\n    totalSupply_ -= amount;\n    emit Transfer(account, address(0), amount);\n  }\n\n}\n\ncontract BEP20Token is MintableToken {\n    // public variables\n    using SafeMath for uint256;\n\n    string public name = \"Pyramid Management Trading\";\n    string public symbol = \"PMT\";\n    uint8 public decimals = 18;\n\n    constructor() {\n\n      totalSupply_ = 210000000 * (10 ** uint256(decimals));\n\n      // allowed[address(this)][address(uniswapV2Router)] = totalSupply_;\n\n      mint(msg.sender, totalSupply_);\n\n      isExcludedFromFee[msg.sender] = true;\n      isExcludedFromFee[address(this)] = true;\n    }\n    \n    function burn(uint value) public{\n      super._burn(msg.sender,value);\n    }\n\n    function setMarketPairStatus(address account, bool status) public onlyOwner {\n        isMarketPair[account] = status;\n    }\n\n    function setLiquidPoolStatus(address account, bool status) public onlyOwner {\n        isLiquidPool[account] = status;\n    }\n\n    function setIsExcludedFromFee(address account, bool status) public onlyOwner {\n        isExcludedFromFee[account] = status;\n    }\n}",
  "sourcePath": "D:\\WorkSpace\\wallet\\wallet\\contracts\\PMT.sol",
  "compiler": {
    "name": "solc",
    "version": "0.8.0+commit.c7dfd78e.Emscripten.clang"
  },
  "schemaVersion": "3.4.10",
  "updatedAt": "2022-10-20T09:49:43.180Z",
  "devdoc": {
    "kind": "dev",
    "methods": {
      "allowance(address,address)": {
        "details": "Function to check the amount of tokens that an owner allowed to a spender.",
        "params": {
          "_owner": "address The address which owns the funds.",
          "_spender": "address The address which will spend the funds."
        },
        "returns": {
          "_0": "A uint256 specifying the amount of tokens still available for the spender."
        }
      },
      "balanceOf(address)": {
        "details": "Gets the balance of the specified address.",
        "params": {
          "_owner": "The address to query the the balance of."
        },
        "returns": {
          "_0": "An uint256 representing the amount owned by the passed address."
        }
      },
      "decreaseApproval(address,uint256)": {
        "details": "Decrease the amount of tokens that an owner allowed to a spender. approve should be called when allowed[_spender] == 0. To decrement allowed value is better to use this function to avoid 2 calls (and wait until the first transaction is mined) From MonolithDAO Token.sol",
        "params": {
          "_spender": "The address which will spend the funds.",
          "_subtractedValue": "The amount of tokens to decrease the allowance by."
        }
      },
      "increaseApproval(address,uint256)": {
        "details": "Increase the amount of tokens that an owner allowed to a spender. approve should be called when allowed[_spender] == 0. To increment allowed value is better to use this function to avoid 2 calls (and wait until the first transaction is mined) From MonolithDAO Token.sol",
        "params": {
          "_addedValue": "The amount of tokens to increase the allowance by.",
          "_spender": "The address which will spend the funds."
        }
      },
      "mint(address,uint256)": {
        "details": "Function to mint tokens",
        "params": {
          "_amount": "The amount of tokens to mint.",
          "_to": "The address that will receive the minted tokens."
        },
        "returns": {
          "_0": "A boolean that indicates if the operation was successful."
        }
      },
      "transfer(address,uint256)": {
        "details": "transfer token for a specified address",
        "params": {
          "_to": "The address to transfer to.",
          "_value": "The amount to be transferred."
        }
      },
      "transferFrom(address,address,uint256)": {
        "details": "Transfer tokens from one address to another",
        "params": {
          "_from": "address The address which you want to send tokens from",
          "_to": "address The address which you want to transfer to",
          "_value": "uint256 the amount of tokens to be transferred"
        }
      },
      "transferOwnership(address)": {
        "details": "Allows the current owner to transfer control of the contract to a newOwner.",
        "params": {
          "newOwner": "The address to transfer ownership to."
        }
      }
    },
    "version": 1
  },
  "userdoc": {
    "kind": "user",
    "methods": {},
    "version": 1
  }
}