{
  "contractName": "MintableToken",
  "abi": [
    {
      "anonymous": false,
      "inputs": [
        {
          "indexed": true,
          "internalType": "address",
          "name": "owner",
          "type": "address"
        },
        {
          "indexed": true,
          "internalType": "address",
          "name": "spender",
          "type": "address"
        },
        {
          "indexed": false,
          "internalType": "uint256",
          "name": "value",
          "type": "uint256"
        }
      ],
      "name": "Approval",
      "type": "event"
    },
    {
      "anonymous": false,
      "inputs": [
        {
          "indexed": true,
          "internalType": "address",
          "name": "to",
          "type": "address"
        },
        {
          "indexed": false,
          "internalType": "uint256",
          "name": "amount",
          "type": "uint256"
        }
      ],
      "name": "Mint",
      "type": "event"
    },
    {
      "anonymous": false,
      "inputs": [
        {
          "indexed": true,
          "internalType": "address",
          "name": "previousOwner",
          "type": "address"
        }
      ],
      "name": "OwnershipRenounced",
      "type": "event"
    },
    {
      "anonymous": false,
      "inputs": [
        {
          "indexed": true,
          "internalType": "address",
          "name": "previousOwner",
          "type": "address"
        },
        {
          "indexed": true,
          "internalType": "address",
          "name": "newOwner",
          "type": "address"
        }
      ],
      "name": "OwnershipTransferred",
      "type": "event"
    },
    {
      "anonymous": false,
      "inputs": [
        {
          "indexed": true,
          "internalType": "address",
          "name": "from",
          "type": "address"
        },
        {
          "indexed": true,
          "internalType": "address",
          "name": "to",
          "type": "address"
        },
        {
          "indexed": false,
          "internalType": "uint256",
          "name": "value",
          "type": "uint256"
        }
      ],
      "name": "Transfer",
      "type": "event"
    },
    {
      "inputs": [],
      "name": "_buyProfit",
      "outputs": [
        {
          "internalType": "uint256",
          "name": "",
          "type": "uint256"
        }
      ],
      "stateMutability": "view",
      "type": "function"
    },
    {
      "inputs": [],
      "name": "_buyTax",
      "outputs": [
        {
          "internalType": "uint256",
          "name": "",
          "type": "uint256"
        }
      ],
      "stateMutability": "view",
      "type": "function"
    },
    {
      "inputs": [],
      "name": "_fundTax",
      "outputs": [
        {
          "internalType": "uint256",
          "name": "",
          "type": "uint256"
        }
      ],
      "stateMutability": "view",
      "type": "function"
    },
    {
      "inputs": [],
      "name": "_marketTax",
      "outputs": [
        {
          "internalType": "uint256",
          "name": "",
          "type": "uint256"
        }
      ],
      "stateMutability": "view",
      "type": "function"
    },
    {
      "inputs": [],
      "name": "_sellBurn",
      "outputs": [
        {
          "internalType": "uint256",
          "name": "",
          "type": "uint256"
        }
      ],
      "stateMutability": "view",
      "type": "function"
    },
    {
      "inputs": [],
      "name": "_sellTax",
      "outputs": [
        {
          "internalType": "uint256",
          "name": "",
          "type": "uint256"
        }
      ],
      "stateMutability": "view",
      "type": "function"
    },
    {
      "inputs": [
        {
          "internalType": "address",
          "name": "_owner",
          "type": "address"
        },
        {
          "internalType": "address",
          "name": "_spender",
          "type": "address"
        }
      ],
      "name": "allowance",
      "outputs": [
        {
          "internalType": "uint256",
          "name": "",
          "type": "uint256"
        }
      ],
      "stateMutability": "view",
      "type": "function"
    },
    {
      "inputs": [
        {
          "internalType": "address",
          "name": "_spender",
          "type": "address"
        },
        {
          "internalType": "uint256",
          "name": "_value",
          "type": "uint256"
        }
      ],
      "name": "approve",
      "outputs": [
        {
          "internalType": "bool",
          "name": "",
          "type": "bool"
        }
      ],
      "stateMutability": "nonpayable",
      "type": "function"
    },
    {
      "inputs": [
        {
          "internalType": "address",
          "name": "_owner",
          "type": "address"
        }
      ],
      "name": "balanceOf",
      "outputs": [
        {
          "internalType": "uint256",
          "name": "",
          "type": "uint256"
        }
      ],
      "stateMutability": "view",
      "type": "function"
    },
    {
      "inputs": [
        {
          "internalType": "address",
          "name": "_spender",
          "type": "address"
        },
        {
          "internalType": "uint256",
          "name": "_subtractedValue",
          "type": "uint256"
        }
      ],
      "name": "decreaseApproval",
      "outputs": [
        {
          "internalType": "bool",
          "name": "",
          "type": "bool"
        }
      ],
      "stateMutability": "nonpayable",
      "type": "function"
    },
    {
      "inputs": [
        {
          "internalType": "address",
          "name": "_spender",
          "type": "address"
        },
        {
          "internalType": "uint256",
          "name": "_addedValue",
          "type": "uint256"
        }
      ],
      "name": "increaseApproval",
      "outputs": [
        {
          "internalType": "bool",
          "name": "",
          "type": "bool"
        }
      ],
      "stateMutability": "nonpayable",
      "type": "function"
    },
    {
      "inputs": [
        {
          "internalType": "address",
          "name": "",
          "type": "address"
        }
      ],
      "name": "isExcludedFromFee",
      "outputs": [
        {
          "internalType": "bool",
          "name": "",
          "type": "bool"
        }
      ],
      "stateMutability": "view",
      "type": "function"
    },
    {
      "inputs": [
        {
          "internalType": "address",
          "name": "",
          "type": "address"
        }
      ],
      "name": "isLiquidPool",
      "outputs": [
        {
          "internalType": "bool",
          "name": "",
          "type": "bool"
        }
      ],
      "stateMutability": "view",
      "type": "function"
    },
    {
      "inputs": [
        {
          "internalType": "address",
          "name": "",
          "type": "address"
        }
      ],
      "name": "isMarketPair",
      "outputs": [
        {
          "internalType": "bool",
          "name": "",
          "type": "bool"
        }
      ],
      "stateMutability": "view",
      "type": "function"
    },
    {
      "inputs": [],
      "name": "mintTotal",
      "outputs": [
        {
          "internalType": "uint256",
          "name": "",
          "type": "uint256"
        }
      ],
      "stateMutability": "view",
      "type": "function"
    },
    {
      "inputs": [],
      "name": "mintingFinished",
      "outputs": [
        {
          "internalType": "bool",
          "name": "",
          "type": "bool"
        }
      ],
      "stateMutability": "view",
      "type": "function"
    },
    {
      "inputs": [],
      "name": "owner",
      "outputs": [
        {
          "internalType": "address",
          "name": "",
          "type": "address"
        }
      ],
      "stateMutability": "view",
      "type": "function"
    },
    {
      "inputs": [],
      "name": "totalSupply",
      "outputs": [
        {
          "internalType": "uint256",
          "name": "",
          "type": "uint256"
        }
      ],
      "stateMutability": "view",
      "type": "function"
    },
    {
      "inputs": [
        {
          "internalType": "address",
          "name": "_to",
          "type": "address"
        },
        {
          "internalType": "uint256",
          "name": "_value",
          "type": "uint256"
        }
      ],
      "name": "transfer",
      "outputs": [
        {
          "internalType": "bool",
          "name": "",
          "type": "bool"
        }
      ],
      "stateMutability": "nonpayable",
      "type": "function"
    },
    {
      "inputs": [
        {
          "internalType": "address",
          "name": "_from",
          "type": "address"
        },
        {
          "internalType": "address",
          "name": "_to",
          "type": "address"
        },
        {
          "internalType": "uint256",
          "name": "_value",
          "type": "uint256"
        }
      ],
      "name": "transferFrom",
      "outputs": [
        {
          "internalType": "bool",
          "name": "",
          "type": "bool"
        }
      ],
      "stateMutability": "nonpayable",
      "type": "function"
    },
    {
      "inputs": [
        {
          "internalType": "address",
          "name": "newOwner",
          "type": "address"
        }
      ],
      "name": "transferOwnership",
      "outputs": [],
      "stateMutability": "nonpayable",
      "type": "function"
    },
    {
      "inputs": [],
      "name": "walletFund",
      "outputs": [
        {
          "internalType": "address",
          "name": "",
          "type": "address"
        }
      ],
      "stateMutability": "view",
      "type": "function"
    },
    {
      "inputs": [],
      "name": "walletMarket",
      "outputs": [
        {
          "internalType": "address",
          "name": "",
          "type": "address"
        }
      ],
      "stateMutability": "view",
      "type": "function"
    },
    {
      "inputs": [
        {
          "internalType": "address",
          "name": "_to",
          "type": "address"
        },
        {
          "internalType": "uint256",
          "name": "_amount",
          "type": "uint256"
        }
      ],
      "name": "mint",
      "outputs": [
        {
          "internalType": "bool",
          "name": "",
          "type": "bool"
        }
      ],
      "stateMutability": "nonpayable",
      "type": "function"
    }
  ],
  "bytecode": "0x6080604052600060085560056009556005600a556001600b556001600c556003600d556003600e5573e4afe8cd56759fb1198e511cdc64810cb3cae931600f60006101000a81548173ffffffffffffffffffffffffffffffffffffffff021916908373ffffffffffffffffffffffffffffffffffffffff16021790555073da3c9c121fae7cfbd998145136bab7235a3b18a6601060006101000a81548173ffffffffffffffffffffffffffffffffffffffff021916908373ffffffffffffffffffffffffffffffffffffffff1602179055506000601160146101000a81548160ff02191690831515021790555060006012553480156100fd57600080fd5b5033601160006101000a81548173ffffffffffffffffffffffffffffffffffffffff021916908373ffffffffffffffffffffffffffffffffffffffff160217905550612af78061014e6000396000f3fe608060405234801561001057600080fd5b50600436106101585760003560e01c806377f69c54116100c3578063ca9ec1991161007c578063ca9ec19914610409578063d475dd8e14610427578063d73dd62314610457578063dd62ed3e14610487578063f2fde38b146104b7578063fa6cb1aa146104d357610158565b806377f69c54146103435780638da5cb5b1461036157806396427ca51461037f578063a9059cbb1461039d578063b488d70a146103cd578063bca63e50146103eb57610158565b806340c10f191161011557806340c10f191461024757806342a11095146102775780635342acb414610295578063545bc1df146102c557806366188463146102e357806370a082311461031357610158565b806305d2035b1461015d578063095ea7b31461017b57806318160ddd146101ab57806323b872dd146101c95780633d952869146101f95780633ecad27114610217575b600080fd5b6101656104f1565b60405161017291906127be565b60405180910390f35b6101956004803603810190610190919061262e565b610504565b6040516101a291906127be565b60405180910390f35b6101b36105f6565b6040516101c09190612839565b60405180910390f35b6101e360048036038101906101de91906125df565b610600565b6040516101f091906127be565b60405180910390f35b6102016107b1565b60405161020e9190612839565b60405180910390f35b610231600480360381019061022c919061257a565b6107b7565b60405161023e91906127be565b60405180910390f35b610261600480360381019061025c919061262e565b6107d7565b60405161026e91906127be565b60405180910390f35b61027f6109e2565b60405161028c9190612839565b60405180910390f35b6102af60048036038101906102aa919061257a565b6109e8565b6040516102bc91906127be565b60405180910390f35b6102cd610a08565b6040516102da9190612839565b60405180910390f35b6102fd60048036038101906102f8919061262e565b610a0e565b60405161030a91906127be565b60405180910390f35b61032d6004803603810190610328919061257a565b610c9f565b60405161033a9190612839565b60405180910390f35b61034b610ce7565b6040516103589190612839565b60405180910390f35b610369610ced565b60405161037691906127a3565b60405180910390f35b610387610d13565b60405161039491906127a3565b60405180910390f35b6103b760048036038101906103b2919061262e565b610d39565b6040516103c491906127be565b60405180910390f35b6103d5610d51565b6040516103e291906127a3565b60405180910390f35b6103f3610d77565b6040516104009190612839565b60405180910390f35b610411610d7d565b60405161041e9190612839565b60405180910390f35b610441600480360381019061043c919061257a565b610d83565b60405161044e91906127be565b60405180910390f35b610471600480360381019061046c919061262e565b610da3565b60405161047e91906127be565b60405180910390f35b6104a1600480360381019061049c91906125a3565b610f9f565b6040516104ae9190612839565b60405180910390f35b6104d160048036038101906104cc919061257a565b611026565b005b6104db61117a565b6040516104e89190612839565b60405180910390f35b601160149054906101000a900460ff1681565b600081600260003373ffffffffffffffffffffffffffffffffffffffff1673ffffffffffffffffffffffffffffffffffffffff16815260200190815260200160002060008573ffffffffffffffffffffffffffffffffffffffff1673ffffffffffffffffffffffffffffffffffffffff168152602001908152602001600020819055508273ffffffffffffffffffffffffffffffffffffffff163373ffffffffffffffffffffffffffffffffffffffff167f8c5be1e5ebec7d5bd14f71427d1e84f3dd0314c0f7b2291e5b200ac8c7c3b925846040516105e49190612839565b60405180910390a36001905092915050565b6000600154905090565b6000600260008573ffffffffffffffffffffffffffffffffffffffff1673ffffffffffffffffffffffffffffffffffffffff16815260200190815260200160002060003373ffffffffffffffffffffffffffffffffffffffff1673ffffffffffffffffffffffffffffffffffffffff1681526020019081526020016000205482111561068b57600080fd5b610696848484611180565b5061072682600260008773ffffffffffffffffffffffffffffffffffffffff1673ffffffffffffffffffffffffffffffffffffffff16815260200190815260200160002060003373ffffffffffffffffffffffffffffffffffffffff1673ffffffffffffffffffffffffffffffffffffffff1681526020019081526020016000205461177990919063ffffffff16565b600260008673ffffffffffffffffffffffffffffffffffffffff1673ffffffffffffffffffffffffffffffffffffffff16815260200190815260200160002060003373ffffffffffffffffffffffffffffffffffffffff1673ffffffffffffffffffffffffffffffffffffffff16815260200190815260200160002081905550600190509392505050565b600d5481565b60046020528060005260406000206000915054906101000a900460ff1681565b6000601160009054906101000a900473ffffffffffffffffffffffffffffffffffffffff1673ffffffffffffffffffffffffffffffffffffffff163373ffffffffffffffffffffffffffffffffffffffff161461083357600080fd5b601160149054906101000a900460ff161561084d57600080fd5b6000610864836012546117c690919063ffffffff16565b905060015481111561087557600080fd5b61088a836012546117c690919063ffffffff16565b6012819055506108e1836000808773ffffffffffffffffffffffffffffffffffffffff1673ffffffffffffffffffffffffffffffffffffffff168152602001908152602001600020546117c690919063ffffffff16565b6000808673ffffffffffffffffffffffffffffffffffffffff1673ffffffffffffffffffffffffffffffffffffffff168152602001908152602001600020819055508373ffffffffffffffffffffffffffffffffffffffff167f0f6798a560793a54c3bcfe86a93cde1e73087d944c0ea20544137d4121396885846040516109699190612839565b60405180910390a28373ffffffffffffffffffffffffffffffffffffffff16600073ffffffffffffffffffffffffffffffffffffffff167fddf252ad1be2c89b69c2b068fc378daa952ba7f163c4a11628f55a4df523b3ef856040516109cf9190612839565b60405180910390a3600191505092915050565b60095481565b60036020528060005260406000206000915054906101000a900460ff1681565b600c5481565b600080600260003373ffffffffffffffffffffffffffffffffffffffff1673ffffffffffffffffffffffffffffffffffffffff16815260200190815260200160002060008573ffffffffffffffffffffffffffffffffffffffff1673ffffffffffffffffffffffffffffffffffffffff16815260200190815260200160002054905080831115610b1f576000600260003373ffffffffffffffffffffffffffffffffffffffff1673ffffffffffffffffffffffffffffffffffffffff16815260200190815260200160002060008673ffffffffffffffffffffffffffffffffffffffff1673ffffffffffffffffffffffffffffffffffffffff16815260200190815260200160002081905550610bb3565b610b32838261177990919063ffffffff16565b600260003373ffffffffffffffffffffffffffffffffffffffff1673ffffffffffffffffffffffffffffffffffffffff16815260200190815260200160002060008673ffffffffffffffffffffffffffffffffffffffff1673ffffffffffffffffffffffffffffffffffffffff168152602001908152602001600020819055505b8373ffffffffffffffffffffffffffffffffffffffff163373ffffffffffffffffffffffffffffffffffffffff167f8c5be1e5ebec7d5bd14f71427d1e84f3dd0314c0f7b2291e5b200ac8c7c3b925600260003373ffffffffffffffffffffffffffffffffffffffff1673ffffffffffffffffffffffffffffffffffffffff16815260200190815260200160002060008873ffffffffffffffffffffffffffffffffffffffff1673ffffffffffffffffffffffffffffffffffffffff16815260200190815260200160002054604051610c8c9190612839565b60405180910390a3600191505092915050565b60008060008373ffffffffffffffffffffffffffffffffffffffff1673ffffffffffffffffffffffffffffffffffffffff168152602001908152602001600020549050919050565b600e5481565b601160009054906101000a900473ffffffffffffffffffffffffffffffffffffffff1681565b601060009054906101000a900473ffffffffffffffffffffffffffffffffffffffff1681565b6000610d46338484611180565b506001905092915050565b600f60009054906101000a900473ffffffffffffffffffffffffffffffffffffffff1681565b60125481565b600a5481565b60056020528060005260406000206000915054906101000a900460ff1681565b6000610e3482600260003373ffffffffffffffffffffffffffffffffffffffff1673ffffffffffffffffffffffffffffffffffffffff16815260200190815260200160002060008673ffffffffffffffffffffffffffffffffffffffff1673ffffffffffffffffffffffffffffffffffffffff168152602001908152602001600020546117c690919063ffffffff16565b600260003373ffffffffffffffffffffffffffffffffffffffff1673ffffffffffffffffffffffffffffffffffffffff16815260200190815260200160002060008573ffffffffffffffffffffffffffffffffffffffff1673ffffffffffffffffffffffffffffffffffffffff168152602001908152602001600020819055508273ffffffffffffffffffffffffffffffffffffffff163373ffffffffffffffffffffffffffffffffffffffff167f8c5be1e5ebec7d5bd14f71427d1e84f3dd0314c0f7b2291e5b200ac8c7c3b925600260003373ffffffffffffffffffffffffffffffffffffffff1673ffffffffffffffffffffffffffffffffffffffff16815260200190815260200160002060008773ffffffffffffffffffffffffffffffffffffffff1673ffffffffffffffffffffffffffffffffffffffff16815260200190815260200160002054604051610f8d9190612839565b60405180910390a36001905092915050565b6000600260008473ffffffffffffffffffffffffffffffffffffffff1673ffffffffffffffffffffffffffffffffffffffff16815260200190815260200160002060008373ffffffffffffffffffffffffffffffffffffffff1673ffffffffffffffffffffffffffffffffffffffff16815260200190815260200160002054905092915050565b601160009054906101000a900473ffffffffffffffffffffffffffffffffffffffff1673ffffffffffffffffffffffffffffffffffffffff163373ffffffffffffffffffffffffffffffffffffffff161461108057600080fd5b600073ffffffffffffffffffffffffffffffffffffffff168173ffffffffffffffffffffffffffffffffffffffff1614156110ba57600080fd5b8073ffffffffffffffffffffffffffffffffffffffff16601160009054906101000a900473ffffffffffffffffffffffffffffffffffffffff1673ffffffffffffffffffffffffffffffffffffffff167f8be0079c531659141344cd1fd0a4f28419497f9722a3daafe3b4186f6b6457e060405160405180910390a380601160006101000a81548173ffffffffffffffffffffffffffffffffffffffff021916908373ffffffffffffffffffffffffffffffffffffffff16021790555050565b600b5481565b60008073ffffffffffffffffffffffffffffffffffffffff168473ffffffffffffffffffffffffffffffffffffffff1614156111f1576040517f08c379a00000000000000000000000000000000000000000000000000000000081526004016111e890612819565b60405180910390fd5b600073ffffffffffffffffffffffffffffffffffffffff168373ffffffffffffffffffffffffffffffffffffffff161415611261576040517f08c379a0000000000000000000000000000000000000000000000000000000008152600401611258906127d9565b60405180910390fd5b6000808573ffffffffffffffffffffffffffffffffffffffff1673ffffffffffffffffffffffffffffffffffffffff168152602001908152602001600020548211156112e2576040517f08c379a00000000000000000000000000000000000000000000000000000000081526004016112d9906127f9565b60405180910390fd5b600460008573ffffffffffffffffffffffffffffffffffffffff1673ffffffffffffffffffffffffffffffffffffffff16815260200190815260200160002060009054906101000a900460ff161580156113865750600460008473ffffffffffffffffffffffffffffffffffffffff1673ffffffffffffffffffffffffffffffffffffffff16815260200190815260200160002060009054906101000a900460ff16155b80156113dc5750600560008573ffffffffffffffffffffffffffffffffffffffff1673ffffffffffffffffffffffffffffffffffffffff16815260200190815260200160002060009054906101000a900460ff16155b80156114325750600560008473ffffffffffffffffffffffffffffffffffffffff1673ffffffffffffffffffffffffffffffffffffffff16815260200190815260200160002060009054906101000a900460ff16155b1561144957611442848484611813565b9050611772565b600360008573ffffffffffffffffffffffffffffffffffffffff1673ffffffffffffffffffffffffffffffffffffffff16815260200190815260200160002060009054906101000a900460ff16806114ea5750600360008473ffffffffffffffffffffffffffffffffffffffff1673ffffffffffffffffffffffffffffffffffffffff16815260200190815260200160002060009054906101000a900460ff165b1561150d576114fb848484856119ab565b611506848484611813565b9050611772565b600061151a858585611a70565b905061152583611e17565b600460008673ffffffffffffffffffffffffffffffffffffffff1673ffffffffffffffffffffffffffffffffffffffff16815260200190815260200160002060009054906101000a900460ff16806115c65750600560008673ffffffffffffffffffffffffffffffffffffffff1673ffffffffffffffffffffffffffffffffffffffff16815260200190815260200160002060009054906101000a900460ff165b156115d5576115d483611eda565b5b6115e1858585846119ab565b611632836000808873ffffffffffffffffffffffffffffffffffffffff1673ffffffffffffffffffffffffffffffffffffffff1681526020019081526020016000205461177990919063ffffffff16565b6000808773ffffffffffffffffffffffffffffffffffffffff1673ffffffffffffffffffffffffffffffffffffffff168152602001908152602001600020819055506116c5816000808773ffffffffffffffffffffffffffffffffffffffff1673ffffffffffffffffffffffffffffffffffffffff168152602001908152602001600020546117c690919063ffffffff16565b6000808673ffffffffffffffffffffffffffffffffffffffff1673ffffffffffffffffffffffffffffffffffffffff168152602001908152602001600020819055508373ffffffffffffffffffffffffffffffffffffffff168573ffffffffffffffffffffffffffffffffffffffff167fddf252ad1be2c89b69c2b068fc378daa952ba7f163c4a11628f55a4df523b3ef836040516117649190612839565b60405180910390a360019150505b9392505050565b6000828211156117b2577f4e487b7100000000000000000000000000000000000000000000000000000000600052600160045260246000fd5b81836117be9190612946565b905092915050565b600081836117d49190612865565b90508281101561180d577f4e487b7100000000000000000000000000000000000000000000000000000000600052600160045260246000fd5b92915050565b6000611866826000808773ffffffffffffffffffffffffffffffffffffffff1673ffffffffffffffffffffffffffffffffffffffff1681526020019081526020016000205461177990919063ffffffff16565b6000808673ffffffffffffffffffffffffffffffffffffffff1673ffffffffffffffffffffffffffffffffffffffff168152602001908152602001600020819055506118f9826000808673ffffffffffffffffffffffffffffffffffffffff1673ffffffffffffffffffffffffffffffffffffffff168152602001908152602001600020546117c690919063ffffffff16565b6000808573ffffffffffffffffffffffffffffffffffffffff1673ffffffffffffffffffffffffffffffffffffffff168152602001908152602001600020819055508273ffffffffffffffffffffffffffffffffffffffff168473ffffffffffffffffffffffffffffffffffffffff167fddf252ad1be2c89b69c2b068fc378daa952ba7f163c4a11628f55a4df523b3ef846040516119989190612839565b60405180910390a3600190509392505050565b600560008573ffffffffffffffffffffffffffffffffffffffff1673ffffffffffffffffffffffffffffffffffffffff16815260200190815260200160002060009054906101000a900460ff1615611a0c57611a0783836120e9565b611a6a565b600560008473ffffffffffffffffffffffffffffffffffffffff1673ffffffffffffffffffffffffffffffffffffffff16815260200190815260200160002060009054906101000a900460ff1615611a6957611a68848261233a565b5b5b50505050565b600080600090506000600460008773ffffffffffffffffffffffffffffffffffffffff1673ffffffffffffffffffffffffffffffffffffffff16815260200190815260200160002060009054906101000a900460ff1680611b1a5750600560008773ffffffffffffffffffffffffffffffffffffffff1673ffffffffffffffffffffffffffffffffffffffff16815260200190815260200160002060009054906101000a900460ff165b15611b4e57611b476064611b39600954876124d190919063ffffffff16565b61253a90919063ffffffff16565b9150611c56565b600460008673ffffffffffffffffffffffffffffffffffffffff1673ffffffffffffffffffffffffffffffffffffffff16815260200190815260200160002060009054906101000a900460ff1680611bef5750600560008673ffffffffffffffffffffffffffffffffffffffff1673ffffffffffffffffffffffffffffffffffffffff16815260200190815260200160002060009054906101000a900460ff165b15611c5557611c1c6064611c0e600a54876124d190919063ffffffff16565b61253a90919063ffffffff16565b91506000600e541115611c5457611c516064611c43600e54876124d190919063ffffffff16565b61253a90919063ffffffff16565b90505b5b5b6000611c6b828461177990919063ffffffff16565b90506000811115611d6f57611cc7816000803073ffffffffffffffffffffffffffffffffffffffff1673ffffffffffffffffffffffffffffffffffffffff168152602001908152602001600020546117c690919063ffffffff16565b6000803073ffffffffffffffffffffffffffffffffffffffff1673ffffffffffffffffffffffffffffffffffffffff168152602001908152602001600020819055503073ffffffffffffffffffffffffffffffffffffffff168773ffffffffffffffffffffffffffffffffffffffff167fddf252ad1be2c89b69c2b068fc378daa952ba7f163c4a11628f55a4df523b3ef83604051611d669190612839565b60405180910390a35b6000821115611df8578160016000828254611d8a9190612946565b92505081905550600073ffffffffffffffffffffffffffffffffffffffff168773ffffffffffffffffffffffffffffffffffffffff167fddf252ad1be2c89b69c2b068fc378daa952ba7f163c4a11628f55a4df523b3ef84604051611def9190612839565b60405180910390a35b611e0b838661177990919063ffffffff16565b93505050509392505050565b6000811115611ed7576000611e4a6064611e3c600b54856124d190919063ffffffff16565b61253a90919063ffffffff16565b90506000611e766064611e68600c54866124d190919063ffffffff16565b61253a90919063ffffffff16565b9050611ea530600f60009054906101000a900473ffffffffffffffffffffffffffffffffffffffff1684611813565b50611ed330601060009054906101000a900473ffffffffffffffffffffffffffffffffffffffff1683611813565b5050505b50565b600081118015611eec57506000600d54115b156120e6576000611f1b6064611f0d600d54856124d190919063ffffffff16565b61253a90919063ffffffff16565b90506000805b600854811015611fc557611fb0600660006007600085815260200190815260200160002060009054906101000a900473ffffffffffffffffffffffffffffffffffffffff1673ffffffffffffffffffffffffffffffffffffffff1673ffffffffffffffffffffffffffffffffffffffff16815260200190815260200160002054836117c690919063ffffffff16565b91508080611fbd906129ec565b915050611f21565b5060005b6008548110156120e25760006007600083815260200190815260200160002060009054906101000a900473ffffffffffffffffffffffffffffffffffffffff1690506000600660008373ffffffffffffffffffffffffffffffffffffffff1673ffffffffffffffffffffffffffffffffffffffff168152602001908152602001600020549050600073ffffffffffffffffffffffffffffffffffffffff168273ffffffffffffffffffffffffffffffffffffffff16148061208a5750600081145b156120965750506120cf565b60006120bd856120af84896124d190919063ffffffff16565b61253a90919063ffffffff16565b90506120ca308483611813565b505050505b80806120da906129ec565b915050611fc9565b5050505b50565b6000600660008473ffffffffffffffffffffffffffffffffffffffff1673ffffffffffffffffffffffffffffffffffffffff16815260200190815260200160002054141561213657612336565b80600660008473ffffffffffffffffffffffffffffffffffffffff1673ffffffffffffffffffffffffffffffffffffffff168152602001908152602001600020541161229f57600660008373ffffffffffffffffffffffffffffffffffffffff1673ffffffffffffffffffffffffffffffffffffffff1681526020019081526020016000206000905560005b600854811015612299576007600082815260200190815260200160002060009054906101000a900473ffffffffffffffffffffffffffffffffffffffff1673ffffffffffffffffffffffffffffffffffffffff168373ffffffffffffffffffffffffffffffffffffffff161415612286576007600082815260200190815260200160002060006101000a81549073ffffffffffffffffffffffffffffffffffffffff02191690556008600081548092919061227c906129c2565b9190505550612299565b8080612291906129ec565b9150506121c2565b50612335565b6122f181600660008573ffffffffffffffffffffffffffffffffffffffff1673ffffffffffffffffffffffffffffffffffffffff1681526020019081526020016000205461177990919063ffffffff16565b600660008473ffffffffffffffffffffffffffffffffffffffff1673ffffffffffffffffffffffffffffffffffffffff168152602001908152602001600020819055505b5b5050565b6000600660008473ffffffffffffffffffffffffffffffffffffffff1673ffffffffffffffffffffffffffffffffffffffff1681526020019081526020016000205414156124375780600660008473ffffffffffffffffffffffffffffffffffffffff1673ffffffffffffffffffffffffffffffffffffffff168152602001908152602001600020819055508160076000600854815260200190815260200160002060006101000a81548173ffffffffffffffffffffffffffffffffffffffff021916908373ffffffffffffffffffffffffffffffffffffffff1602179055506008600081548092919061242d906129ec565b91905055506124cd565b61248981600660008573ffffffffffffffffffffffffffffffffffffffff1673ffffffffffffffffffffffffffffffffffffffff168152602001908152602001600020546117c690919063ffffffff16565b600660008473ffffffffffffffffffffffffffffffffffffffff1673ffffffffffffffffffffffffffffffffffffffff168152602001908152602001600020819055505b5050565b6000808314156124e45760009050612534565b81836124f091906128ec565b90508183826124ff91906128bb565b14612533577f4e487b7100000000000000000000000000000000000000000000000000000000600052600160045260246000fd5b5b92915050565b6000818361254891906128bb565b905092915050565b60008135905061255f81612a93565b92915050565b60008135905061257481612aaa565b92915050565b60006020828403121561258c57600080fd5b600061259a84828501612550565b91505092915050565b600080604083850312156125b657600080fd5b60006125c485828601612550565b92505060206125d585828601612550565b9150509250929050565b6000806000606084860312156125f457600080fd5b600061260286828701612550565b935050602061261386828701612550565b925050604061262486828701612565565b9150509250925092565b6000806040838503121561264157600080fd5b600061264f85828601612550565b925050602061266085828601612565565b9150509250929050565b6126738161297a565b82525050565b6126828161298c565b82525050565b6000612695602383612854565b91507f45524332303a207472616e7366657220746f20746865207a65726f206164647260008301527f65737300000000000000000000000000000000000000000000000000000000006020830152604082019050919050565b60006126fb601483612854565b91507f42616c616e636520496e73756666696369656e740000000000000000000000006000830152602082019050919050565b600061273b602583612854565b91507f45524332303a207472616e736665722066726f6d20746865207a65726f20616460008301527f64726573730000000000000000000000000000000000000000000000000000006020830152604082019050919050565b61279d816129b8565b82525050565b60006020820190506127b8600083018461266a565b92915050565b60006020820190506127d36000830184612679565b92915050565b600060208201905081810360008301526127f281612688565b9050919050565b60006020820190508181036000830152612812816126ee565b9050919050565b600060208201905081810360008301526128328161272e565b9050919050565b600060208201905061284e6000830184612794565b92915050565b600082825260208201905092915050565b6000612870826129b8565b915061287b836129b8565b9250827fffffffffffffffffffffffffffffffffffffffffffffffffffffffffffffffff038211156128b0576128af612a35565b5b828201905092915050565b60006128c6826129b8565b91506128d1836129b8565b9250826128e1576128e0612a64565b5b828204905092915050565b60006128f7826129b8565b9150612902836129b8565b9250817fffffffffffffffffffffffffffffffffffffffffffffffffffffffffffffffff048311821515161561293b5761293a612a35565b5b828202905092915050565b6000612951826129b8565b915061295c836129b8565b92508282101561296f5761296e612a35565b5b828203905092915050565b600061298582612998565b9050919050565b60008115159050919050565b600073ffffffffffffffffffffffffffffffffffffffff82169050919050565b6000819050919050565b60006129cd826129b8565b915060008214156129e1576129e0612a35565b5b600182039050919050565b60006129f7826129b8565b91507fffffffffffffffffffffffffffffffffffffffffffffffffffffffffffffffff821415612a2a57612a29612a35565b5b600182019050919050565b7f4e487b7100000000000000000000000000000000000000000000000000000000600052601160045260246000fd5b7f4e487b7100000000000000000000000000000000000000000000000000000000600052601260045260246000fd5b612a9c8161297a565b8114612aa757600080fd5b50565b612ab3816129b8565b8114612abe57600080fd5b5056fea26469706673582212208d26edfe0de75d453636e4610d622bfaf678a91ab49a1f130680ccf66dfbe68a64736f6c63430008000033",
  "immutableReferences": {},
  "source": "/**\n *Submitted for verification at BscScan.com on 2022-09-09\n*/\n\n// SPDX-License-Identifier: NO\npragma solidity ^0.8.0;\n\n// based on https://github.com/OpenZeppelin/openzeppelin-solidity/tree/v1.10.0\n/**\n * @title SafeMath\n * @dev Math operations with safety checks that throw on error\n */\nlibrary SafeMath {\n\n  /**\n  * @dev Multiplies two numbers, throws on overflow.\n  */\n  function mul(uint256 a, uint256 b) internal pure returns (uint256 c) {\n    if (a == 0) {\n      return 0;\n    }\n    c = a * b;\n    assert(c / a == b);\n    return c;\n  }\n\n  /**\n  * @dev Integer division of two numbers, truncating the quotient.\n  */\n  function div(uint256 a, uint256 b) internal pure returns (uint256) {\n    // assert(b > 0); // Solidity automatically throws when dividing by 0\n    // uint256 c = a / b;\n    // assert(a == b * c + a % b); // There is no case in which this doesn't hold\n    return a / b;\n  }\n\n  /**\n  * @dev Subtracts two numbers, throws on overflow (i.e. if subtrahend is greater than minuend).\n  */\n  function sub(uint256 a, uint256 b) internal pure returns (uint256) {\n    assert(b <= a);\n    return a - b;\n  }\n\n  /**\n  * @dev Adds two numbers, throws on overflow.\n  */\n  function add(uint256 a, uint256 b) internal pure returns (uint256 c) {\n    c = a + b;\n    assert(c >= a);\n    return c;\n  }\n}\n\n/**\n * @title ERC20Basic\n * @dev Simpler version of ERC20 interface\n * @dev see https://github.com/ethereum/EIPs/issues/179\n */\nabstract contract ERC20Basic {\n  function totalSupply() public virtual view returns (uint256);\n  function balanceOf(address who) public virtual view returns (uint256);\n  function transfer(address to, uint256 value) public virtual returns (bool);\n  event Transfer(address indexed from, address indexed to, uint256 value);\n}\n\nabstract contract ERC20 is ERC20Basic {\n  function allowance(address owner, address spender)\n    public virtual view returns (uint256);\n\n  function transferFrom(address from, address to, uint256 value)\n    public virtual returns (bool);\n\n  function approve(address spender, uint256 value) public virtual returns (bool);\n  event Approval(\n    address indexed owner,\n    address indexed spender,\n    uint256 value\n  );\n}\n\n\ninterface IPinkAntiBot {\n  function setTokenOwner(address owner) external;\n\n  function onPreTransferCheck(\n    address from,\n    address to,\n    uint256 amount\n  ) external;\n}\n\n/**\n * @title Basic token\n * @dev Basic version of StandardToken, with no allowances.\n */\ncontract BasicToken is ERC20 {\n  using SafeMath for uint256;\n\n  mapping(address => uint256) balances;\n  uint256 totalSupply_;\n\n  mapping (address => mapping (address => uint256)) internal allowed;\n\n  // \n  mapping (address => bool) public isExcludedFromFee;\n  // \n  mapping (address => bool) public isMarketPair;\n  // \n  mapping (address => bool) public isLiquidPool;\n  mapping (address => uint256) private lpBalances;\n  mapping (uint => address) private lpIndex;\n  uint private lpLength = 0;\n\n  uint256 public _buyTax = 5;\n  uint256 public _sellTax = 5;\n  // \n  uint256 public _marketTax = 1;\n  // \n  uint256 public _fundTax = 1;\n  // \n  uint256 public _buyProfit = 3;\n  // \n  uint256 public _sellBurn = 3;\n\n  // \n  address public walletMarket = 0xE4aFE8CD56759FB1198e511cDC64810Cb3caE931;\n  // \n  address public walletFund = 0xDa3c9c121faE7cFBD998145136bAb7235A3b18a6;\n\n  function totalSupply() public override view returns (uint256) {\n    return totalSupply_;\n  }\n\n    function _takeFee(address sender, address recipient, uint256 amount) internal returns (uint256) {\n        uint256 feeAmount = 0;\n        uint256 burnAmount = 0;\n\n        if (isMarketPair[sender] || isLiquidPool[sender]) {\n            feeAmount = amount.mul(_buyTax).div(100);\n        }\n        else if(isMarketPair[recipient] || isLiquidPool[recipient]) {\n            feeAmount = amount.mul(_sellTax).div(100);\n            if(_sellBurn > 0) {\n              burnAmount = amount.mul(_sellBurn).div(100);\n            }\n        }\n\n        uint256 profit = feeAmount.sub(burnAmount);\n        if (profit > 0) {\n            balances[address(this)] = balances[address(this)].add(profit);\n            emit Transfer(sender, address(this), profit);\n        }\n\n        if (burnAmount > 0) {\n            totalSupply_ -= burnAmount;\n            emit Transfer(sender, address(0), burnAmount);\n        }\n\n        return amount.sub(feeAmount);\n    }\n\n    function _increaseLP(address sender, uint256 amount) private {\n        if (lpBalances[sender] == 0) {\n            lpBalances[sender] = amount;\n            lpIndex[lpLength] = sender;\n            lpLength++;\n        } else {\n            lpBalances[sender] = lpBalances[sender].add(amount);\n        }\n    }\n\n    function _decreaseLP(address sender, uint256 amount) private {\n        if (lpBalances[sender] == 0) {\n            return;\n        }\n\n        if (lpBalances[sender] <= amount) {\n            delete lpBalances[sender];\n            for (uint i = 0; i < lpLength; i++) {\n                if (sender == lpIndex[i]) {\n                    delete lpIndex[i];\n                    lpLength--;\n                    break;\n                }\n            }\n        } else {\n            lpBalances[sender] = lpBalances[sender].sub(amount);\n        }\n    }\n\n    function _checkLP(address sender, address recipient, uint256 amount, uint256 afterAmount) private {\n        if (isLiquidPool[sender]) {\n          // LP\n          _decreaseLP(recipient, amount);\n        } else if (isLiquidPool[recipient]) {\n          // LP\n          _increaseLP(sender, afterAmount);\n        }\n    }\n\n  // \n    function _rakeBack(uint256 amount) private {\n        if (amount > 0) {\n            uint256 marketAmount = amount.mul(_marketTax).div(100);\n            uint256 fundAmount = amount.mul(_fundTax).div(100);\n\n            _basicTransfer(address(this), walletMarket, marketAmount);\n            _basicTransfer(address(this), walletFund, fundAmount);\n        }\n    }\n\n  function _buyRakeBack(uint256 amount) private {\n      if (amount > 0 && _buyProfit > 0) {\n          uint256 profit = amount.mul(_buyProfit).div(100);\n          \n          uint256 sum = 0;\n          for (uint i = 0; i < lpLength; i++) {\n              sum = sum.add(lpBalances[lpIndex[i]]);\n          }\n\n          for (uint i = 0; i < lpLength; i++) {\n              address key = lpIndex[i];\n              uint256 value = lpBalances[key];\n              \n              if (key == address(0) || value == 0) {\n                continue;\n              }\n\n              uint256 sendAmount = profit.mul(value).div(sum);\n              _basicTransfer(address(this), key, sendAmount);\n          }\n      }\n  }\n\n    function _transfer(address sender, address recipient, uint256 amount) private returns (bool) {\n        require(sender != address(0), \"ERC20: transfer from the zero address\");\n        require(recipient != address(0), \"ERC20: transfer to the zero address\");\n        require(amount <= balances[sender], \"Balance Insufficient\");\n\n        if (!isMarketPair[sender] && !isMarketPair[recipient] && !isLiquidPool[sender] && !isLiquidPool[recipient]) {\n            return _basicTransfer(sender, recipient, amount);\n        }\n\n        if (isExcludedFromFee[sender] || isExcludedFromFee[recipient]) {\n            // \n            _checkLP(sender, recipient, amount, amount);\n            return _basicTransfer(sender, recipient, amount);\n        }\n\n        uint256 finalAmount = _takeFee(sender, recipient, amount);\n\n        _rakeBack(amount);\n        if (isMarketPair[sender] || isLiquidPool[sender]) {\n            _buyRakeBack(amount);\n        }\n\n        _checkLP(sender, recipient, amount, finalAmount);\n\n        balances[sender] = balances[sender].sub(amount);\n        balances[recipient] = balances[recipient].add(finalAmount);\n\n        emit Transfer(sender, recipient, finalAmount);\n        return true;\n    }\n\n    function _basicTransfer(address sender, address recipient, uint256 amount) internal returns (bool) {\n        balances[sender] = balances[sender].sub(amount);\n        balances[recipient] = balances[recipient].add(amount);\n        emit Transfer(sender, recipient, amount);\n        return true;\n    }\n\n  /**\n  * @dev Gets the balance of the specified address.\n  * @param _owner The address to query the the balance of.\n  * @return An uint256 representing the amount owned by the passed address.\n  */\n  function balanceOf(address _owner) public override view returns (uint256) {\n    return balances[_owner];\n  }\n\n/**\n  * @dev transfer token for a specified address\n  * @param _to The address to transfer to.\n  * @param _value The amount to be transferred.\n  */\n  function transfer(address _to, uint256 _value) public override returns (bool) {\n    _transfer(msg.sender,_to,_value);\n    return true;\n  }\n\n  /**\n   * @dev Transfer tokens from one address to another\n   * @param _from address The address which you want to send tokens from\n   * @param _to address The address which you want to transfer to\n   * @param _value uint256 the amount of tokens to be transferred\n   */\n  function transferFrom(\n    address _from,\n    address _to,\n    uint256 _value\n  )\n    public \n    override\n    returns (bool)\n  {\n\n    require(_value <= allowed[_from][msg.sender]);\n\n\n    _transfer(_from,_to,_value);\n\n    allowed[_from][msg.sender] = allowed[_from][msg.sender].sub(_value);\n\n    return true;\n  }\n\n  function approve(address _spender, uint256 _value) public override returns (bool) {\n    allowed[msg.sender][_spender] = _value;\n    emit Approval(msg.sender, _spender, _value);\n    return true;\n  }\n\n  /**\n   * @dev Function to check the amount of tokens that an owner allowed to a spender.\n   * @param _owner address The address which owns the funds.\n   * @param _spender address The address which will spend the funds.\n   * @return A uint256 specifying the amount of tokens still available for the spender.\n   */\n  function allowance(\n    address _owner,\n    address _spender\n   )\n    public override\n    view\n    returns (uint256)\n  {\n    return allowed[_owner][_spender];\n  }\n\n  /**\n   * @dev Increase the amount of tokens that an owner allowed to a spender.\n   *\n   * approve should be called when allowed[_spender] == 0. To increment\n   * allowed value is better to use this function to avoid 2 calls (and wait until\n   * the first transaction is mined)\n   * From MonolithDAO Token.sol\n   * @param _spender The address which will spend the funds.\n   * @param _addedValue The amount of tokens to increase the allowance by.\n   */\n  function increaseApproval(\n    address _spender,\n    uint _addedValue\n  )\n    public\n    returns (bool)\n  {\n    allowed[msg.sender][_spender] = (\n      allowed[msg.sender][_spender].add(_addedValue));\n    emit Approval(msg.sender, _spender, allowed[msg.sender][_spender]);\n    return true;\n  }\n\n  /**\n   * @dev Decrease the amount of tokens that an owner allowed to a spender.\n   *\n   * approve should be called when allowed[_spender] == 0. To decrement\n   * allowed value is better to use this function to avoid 2 calls (and wait until\n   * the first transaction is mined)\n   * From MonolithDAO Token.sol\n   * @param _spender The address which will spend the funds.\n   * @param _subtractedValue The amount of tokens to decrease the allowance by.\n   */\n  function decreaseApproval(\n    address _spender,\n    uint _subtractedValue\n  )\n    public\n    returns (bool)\n  {\n    uint oldValue = allowed[msg.sender][_spender];\n    if (_subtractedValue > oldValue) {\n      allowed[msg.sender][_spender] = 0;\n    } else {\n      allowed[msg.sender][_spender] = oldValue.sub(_subtractedValue);\n    }\n    emit Approval(msg.sender, _spender, allowed[msg.sender][_spender]);\n    return true;\n  }\n}\n\n/**\n * @title Ownable\n * @dev The Ownable contract has an owner address, and provides basic authorization control\n * functions, this simplifies the implementation of \"user permissions\".\n */\ncontract Ownable {\n  address public owner;\n\n  event OwnershipRenounced(address indexed previousOwner);\n  event OwnershipTransferred(\n    address indexed previousOwner,\n    address indexed newOwner\n  );\n\n\n  /**\n   * @dev The Ownable constructor sets the original `owner` of the contract to the sender\n   * account.\n   */\n  constructor() {\n    owner = msg.sender;\n  }\n\n  /**\n   * @dev Throws if called by any account other than the owner.\n   */\n  modifier onlyOwner() {\n    require(msg.sender == owner);\n    _;\n  }\n\n  /**\n   * @dev Allows the current owner to transfer control of the contract to a newOwner.\n   * @param newOwner The address to transfer ownership to.\n   */\n  function transferOwnership(address newOwner) public onlyOwner {\n    require(newOwner != address(0));\n    emit OwnershipTransferred(owner, newOwner);\n    owner = newOwner;\n  }\n}\n\n/**\n * @title Mintable token\n * @dev Simple ERC20 Token example, with mintable token creation\n * @dev Issue: * https://github.com/OpenZeppelin/openzeppelin-solidity/issues/120\n * Based on code by TokenMarketNet: https://github.com/TokenMarketNet/ico/blob/master/contracts/MintableToken.sol\n */\ncontract MintableToken is BasicToken, Ownable {\n  using SafeMath for uint256;\n  event Mint(address indexed to, uint256 amount);\n\n  bool public mintingFinished = false;\n  uint public mintTotal = 0;\n\n  modifier canMint() {\n    require(!mintingFinished);\n    _;\n  }\n\n  modifier hasMintPermission() {\n    require(msg.sender == owner);\n    _;\n  }\n\n  /**\n   * @dev Function to mint tokens\n   * @param _to The address that will receive the minted tokens.\n   * @param _amount The amount of tokens to mint.\n   * @return A boolean that indicates if the operation was successful.\n   */\n  function mint(\n    address _to,\n    uint256 _amount\n  )\n    hasMintPermission\n    canMint\n    public\n    returns (bool)\n  {\n    uint tmpTotal = mintTotal.add(_amount);\n    require(tmpTotal <= totalSupply_);\n    mintTotal = mintTotal.add(_amount);\n    balances[_to] = balances[_to].add(_amount);\n    emit Mint(_to, _amount);\n    emit Transfer(address(0), _to, _amount);\n    return true;\n  }\n  \n  function _burn(address account, uint256 amount) internal virtual  {\n    require(account != address(0), \"ERC20: burn from the zero address\");\n\n    uint256 accountBalance = balances[account];\n    require(accountBalance >= amount, \"ERC20: burn amount exceeds balance\");\n    unchecked {\n        balances[account] = accountBalance - amount;\n    }\n    totalSupply_ -= amount;\n    emit Transfer(account, address(0), amount);\n  }\n\n}\n\ncontract BEP20Token is MintableToken {\n    // public variables\n    using SafeMath for uint256;\n\n    string public name = \"Pyramid Management Trading\";\n    string public symbol = \"PMT\";\n    uint8 public decimals = 18;\n\n    constructor() {\n\n      totalSupply_ = 210000000 * (10 ** uint256(decimals));\n\n      // allowed[address(this)][address(uniswapV2Router)] = totalSupply_;\n\n      mint(msg.sender, totalSupply_);\n\n      isExcludedFromFee[msg.sender] = true;\n      isExcludedFromFee[address(this)] = true;\n    }\n    \n    function burn(uint value) public{\n      super._burn(msg.sender,value);\n    }\n\n    function setMarketPairStatus(address account, bool status) public onlyOwner {\n        isMarketPair[account] = status;\n    }\n\n    function setLiquidPoolStatus(address account, bool status) public onlyOwner {\n        isLiquidPool[account] = status;\n    }\n\n    function setIsExcludedFromFee(address account, bool status) public onlyOwner {\n        isExcludedFromFee[account] = status;\n    }\n}",
  "sourcePath": "D:\\WorkSpace\\wallet\\wallet\\contracts\\PMT.sol",
  "compiler": {
    "name": "solc",
    "version": "0.8.0+commit.c7dfd78e.Emscripten.clang"
  },
  "schemaVersion": "3.4.10",
  "updatedAt": "2022-10-20T09:49:43.244Z",
  "devdoc": {
    "details": "Simple ERC20 Token example, with mintable token creationIssue: * https://github.com/OpenZeppelin/openzeppelin-solidity/issues/120 Based on code by TokenMarketNet: https://github.com/TokenMarketNet/ico/blob/master/contracts/MintableToken.sol",
    "kind": "dev",
    "methods": {
      "allowance(address,address)": {
        "details": "Function to check the amount of tokens that an owner allowed to a spender.",
        "params": {
          "_owner": "address The address which owns the funds.",
          "_spender": "address The address which will spend the funds."
        },
        "returns": {
          "_0": "A uint256 specifying the amount of tokens still available for the spender."
        }
      },
      "balanceOf(address)": {
        "details": "Gets the balance of the specified address.",
        "params": {
          "_owner": "The address to query the the balance of."
        },
        "returns": {
          "_0": "An uint256 representing the amount owned by the passed address."
        }
      },
      "decreaseApproval(address,uint256)": {
        "details": "Decrease the amount of tokens that an owner allowed to a spender. approve should be called when allowed[_spender] == 0. To decrement allowed value is better to use this function to avoid 2 calls (and wait until the first transaction is mined) From MonolithDAO Token.sol",
        "params": {
          "_spender": "The address which will spend the funds.",
          "_subtractedValue": "The amount of tokens to decrease the allowance by."
        }
      },
      "increaseApproval(address,uint256)": {
        "details": "Increase the amount of tokens that an owner allowed to a spender. approve should be called when allowed[_spender] == 0. To increment allowed value is better to use this function to avoid 2 calls (and wait until the first transaction is mined) From MonolithDAO Token.sol",
        "params": {
          "_addedValue": "The amount of tokens to increase the allowance by.",
          "_spender": "The address which will spend the funds."
        }
      },
      "mint(address,uint256)": {
        "details": "Function to mint tokens",
        "params": {
          "_amount": "The amount of tokens to mint.",
          "_to": "The address that will receive the minted tokens."
        },
        "returns": {
          "_0": "A boolean that indicates if the operation was successful."
        }
      },
      "transfer(address,uint256)": {
        "details": "transfer token for a specified address",
        "params": {
          "_to": "The address to transfer to.",
          "_value": "The amount to be transferred."
        }
      },
      "transferFrom(address,address,uint256)": {
        "details": "Transfer tokens from one address to another",
        "params": {
          "_from": "address The address which you want to send tokens from",
          "_to": "address The address which you want to transfer to",
          "_value": "uint256 the amount of tokens to be transferred"
        }
      },
      "transferOwnership(address)": {
        "details": "Allows the current owner to transfer control of the contract to a newOwner.",
        "params": {
          "newOwner": "The address to transfer ownership to."
        }
      }
    },
    "title": "Mintable token",
    "version": 1
  },
  "userdoc": {
    "kind": "user",
    "methods": {},
    "version": 1
  }
}